{
  "address": "0x6534B2B6C7629195586D1c8FD8F1c82e321662Ad",
  "abi": [
    {
      "inputs": [
        {
          "internalType": "address",
          "name": "owner",
          "type": "address"
        },
        {
          "internalType": "contract MicroBidToken",
          "name": "_bidToken",
          "type": "address"
        },
        {
          "internalType": "address",
          "name": "_collateralToken",
          "type": "address"
        },
        {
          "internalType": "contract IAttester",
          "name": "_attester",
          "type": "address"
        },
        {
          "internalType": "address",
          "name": "_treasury",
          "type": "address"
        }
      ],
      "stateMutability": "nonpayable",
      "type": "constructor"
    },
    {
      "inputs": [
        {
          "internalType": "address",
          "name": "target",
          "type": "address"
        }
      ],
      "name": "AddressEmptyCode",
      "type": "error"
    },
    {
      "inputs": [
        {
          "internalType": "address",
          "name": "account",
          "type": "address"
        }
      ],
      "name": "AddressInsufficientBalance",
      "type": "error"
    },
    {
      "inputs": [],
      "name": "AuctionAlreadyClaimed",
      "type": "error"
    },
    {
      "inputs": [],
      "name": "AuctionAlreadyStarted",
      "type": "error"
    },
    {
      "inputs": [],
      "name": "AuctionEnded",
      "type": "error"
    },
    {
      "inputs": [],
      "name": "AuctionNotEnded",
      "type": "error"
    },
    {
      "inputs": [],
      "name": "AuctionNotStarted",
      "type": "error"
    },
    {
      "inputs": [],
      "name": "FailedInnerCall",
      "type": "error"
    },
    {
      "inputs": [],
      "name": "InsufficientFunds",
      "type": "error"
    },
    {
      "inputs": [
        {
          "internalType": "address",
          "name": "owner",
          "type": "address"
        }
      ],
      "name": "OwnableInvalidOwner",
      "type": "error"
    },
    {
      "inputs": [
        {
          "internalType": "address",
          "name": "account",
          "type": "address"
        }
      ],
      "name": "OwnableUnauthorizedAccount",
      "type": "error"
    },
    {
      "inputs": [],
      "name": "ReentrancyGuardReentrantCall",
      "type": "error"
    },
    {
      "inputs": [
        {
          "internalType": "address",
          "name": "token",
          "type": "address"
        }
      ],
      "name": "SafeERC20FailedOperation",
      "type": "error"
    },
    {
      "inputs": [],
      "name": "UnauthorizedCaller",
      "type": "error"
    },
    {
      "inputs": [],
      "name": "UnauthorizedClaimer",
      "type": "error"
    },
    {
      "anonymous": false,
      "inputs": [
        {
          "indexed": true,
          "internalType": "uint256",
          "name": "id",
          "type": "uint256"
        },
        {
          "indexed": false,
          "internalType": "string",
          "name": "metadataURI",
          "type": "string"
        }
      ],
      "name": "AuctionAdded",
      "type": "event"
    },
    {
      "anonymous": false,
      "inputs": [
        {
          "indexed": true,
          "internalType": "uint256",
          "name": "id",
          "type": "uint256"
        },
        {
          "indexed": false,
          "internalType": "string",
          "name": "metadataURI",
          "type": "string"
        }
      ],
      "name": "AuctionItemMetadataUpdated",
      "type": "event"
    },
    {
      "anonymous": false,
      "inputs": [
        {
          "indexed": true,
          "internalType": "uint256",
          "name": "id",
          "type": "uint256"
        }
      ],
      "name": "AuctionStarted",
      "type": "event"
    },
    {
      "anonymous": false,
      "inputs": [
        {
          "indexed": true,
          "internalType": "uint256",
          "name": "id",
          "type": "uint256"
        },
        {
          "indexed": true,
          "internalType": "address",
          "name": "bidder",
          "type": "address"
        },
        {
          "indexed": false,
          "internalType": "uint256",
          "name": "totalBids",
          "type": "uint256"
        },
        {
          "indexed": false,
          "internalType": "uint256",
          "name": "endBlock",
          "type": "uint256"
        }
      ],
      "name": "BidPlaced",
      "type": "event"
    },
    {
      "anonymous": false,
      "inputs": [
        {
          "indexed": true,
          "internalType": "address",
          "name": "previousOwner",
          "type": "address"
        },
        {
          "indexed": true,
          "internalType": "address",
          "name": "newOwner",
          "type": "address"
        }
      ],
      "name": "OwnershipTransferred",
      "type": "event"
    },
    {
      "inputs": [
        {
          "internalType": "string",
          "name": "metadataURI",
          "type": "string"
        }
      ],
      "name": "addItem",
      "outputs": [],
      "stateMutability": "nonpayable",
      "type": "function"
    },
    {
      "inputs": [],
      "name": "attester",
      "outputs": [
        {
          "internalType": "contract IAttester",
          "name": "",
          "type": "address"
        }
      ],
      "stateMutability": "view",
      "type": "function"
    },
    {
      "inputs": [
        {
          "internalType": "uint256",
          "name": "itemId",
          "type": "uint256"
        }
      ],
      "name": "auctionItems",
      "outputs": [
        {
          "internalType": "uint256",
          "name": "itemId",
          "type": "uint256"
        },
        {
          "internalType": "bool",
          "name": "isActive",
          "type": "bool"
        },
        {
          "internalType": "uint256",
          "name": "endBlock",
          "type": "uint256"
        },
        {
          "internalType": "uint256",
          "name": "totalBids",
          "type": "uint256"
        },
        {
          "internalType": "address",
          "name": "latestBidder",
          "type": "address"
        },
        {
          "internalType": "string",
          "name": "metadataURI",
          "type": "string"
        },
        {
          "internalType": "bool",
          "name": "claimed",
          "type": "bool"
        }
      ],
      "stateMutability": "view",
      "type": "function"
    },
    {
      "inputs": [],
      "name": "bidToken",
      "outputs": [
        {
          "internalType": "contract MicroBidToken",
          "name": "",
          "type": "address"
        }
      ],
      "stateMutability": "view",
      "type": "function"
    },
    {
      "inputs": [
        {
          "internalType": "uint256",
          "name": "itemId",
          "type": "uint256"
        },
        {
          "internalType": "address",
          "name": "bidder",
          "type": "address"
        }
      ],
      "name": "bids",
      "outputs": [
        {
          "internalType": "uint256",
          "name": "numBids",
          "type": "uint256"
        }
      ],
      "stateMutability": "view",
      "type": "function"
    },
    {
      "inputs": [
        {
          "internalType": "uint256",
          "name": "itemId",
          "type": "uint256"
        },
        {
          "internalType": "uint256",
          "name": "deadline",
          "type": "uint256"
        },
        {
          "internalType": "uint8",
          "name": "v",
          "type": "uint8"
        },
        {
          "internalType": "bytes32",
          "name": "r",
          "type": "bytes32"
        },
        {
          "internalType": "bytes32",
          "name": "s",
          "type": "bytes32"
        }
      ],
      "name": "claim",
      "outputs": [],
      "stateMutability": "nonpayable",
      "type": "function"
    },
    {
      "inputs": [],
      "name": "collateralToken",
      "outputs": [
        {
          "internalType": "address",
          "name": "",
          "type": "address"
        }
      ],
      "stateMutability": "view",
      "type": "function"
    },
    {
      "inputs": [
        {
          "internalType": "uint256",
          "name": "itemId",
          "type": "uint256"
        }
      ],
      "name": "getAuctionItem",
      "outputs": [
        {
          "components": [
            {
              "internalType": "uint256",
              "name": "itemId",
              "type": "uint256"
            },
            {
              "internalType": "bool",
              "name": "isActive",
              "type": "bool"
            },
            {
              "internalType": "uint256",
              "name": "endBlock",
              "type": "uint256"
            },
            {
              "internalType": "uint256",
              "name": "totalBids",
              "type": "uint256"
            },
            {
              "internalType": "address",
              "name": "latestBidder",
              "type": "address"
            },
            {
              "internalType": "string",
              "name": "metadataURI",
              "type": "string"
            },
            {
              "internalType": "bool",
              "name": "claimed",
              "type": "bool"
            }
          ],
          "internalType": "struct Types.AuctionItem",
          "name": "",
          "type": "tuple"
        }
      ],
      "stateMutability": "view",
      "type": "function"
    },
    {
      "inputs": [
        {
          "internalType": "uint256",
          "name": "itemId",
          "type": "uint256"
        },
        {
          "internalType": "address",
          "name": "bidder",
          "type": "address"
        }
      ],
      "name": "getBids",
      "outputs": [
        {
          "internalType": "uint256",
          "name": "",
          "type": "uint256"
        }
      ],
      "stateMutability": "view",
      "type": "function"
    },
    {
      "inputs": [
        {
          "internalType": "uint256",
          "name": "itemId",
          "type": "uint256"
        }
      ],
      "name": "getCurrentPrice",
      "outputs": [
        {
          "internalType": "uint256",
          "name": "",
          "type": "uint256"
        }
      ],
      "stateMutability": "view",
      "type": "function"
    },
    {
      "inputs": [
        {
          "internalType": "uint256",
          "name": "itemId",
          "type": "uint256"
        }
      ],
      "name": "getEstimatedEndTime",
      "outputs": [
        {
          "internalType": "uint256",
          "name": "",
          "type": "uint256"
        }
      ],
      "stateMutability": "view",
      "type": "function"
    },
    {
      "inputs": [
        {
          "internalType": "uint256",
          "name": "itemId",
          "type": "uint256"
        }
      ],
      "name": "getTotalBids",
      "outputs": [
        {
          "internalType": "uint256",
          "name": "",
          "type": "uint256"
        }
      ],
      "stateMutability": "view",
      "type": "function"
    },
    {
      "inputs": [
        {
          "internalType": "address",
          "name": "user",
          "type": "address"
        }
      ],
      "name": "getUserBidAuctions",
      "outputs": [
        {
          "internalType": "uint256[]",
          "name": "",
          "type": "uint256[]"
        }
      ],
      "stateMutability": "view",
      "type": "function"
    },
    {
      "inputs": [
        {
          "internalType": "uint256",
          "name": "itemId",
          "type": "uint256"
        }
      ],
      "name": "isAuctionEnded",
      "outputs": [
        {
          "internalType": "bool",
          "name": "",
          "type": "bool"
        }
      ],
      "stateMutability": "view",
      "type": "function"
    },
    {
      "inputs": [],
      "name": "itemCount",
      "outputs": [
        {
          "internalType": "uint256",
          "name": "",
          "type": "uint256"
        }
      ],
      "stateMutability": "view",
      "type": "function"
    },
    {
      "inputs": [],
      "name": "owner",
      "outputs": [
        {
          "internalType": "address",
          "name": "",
          "type": "address"
        }
      ],
      "stateMutability": "view",
      "type": "function"
    },
    {
      "inputs": [
        {
          "internalType": "uint256",
          "name": "itemId",
          "type": "uint256"
        }
      ],
      "name": "placeBid",
      "outputs": [],
      "stateMutability": "nonpayable",
      "type": "function"
    },
    {
      "inputs": [
        {
          "internalType": "address",
          "name": "tokenAddress",
          "type": "address"
        },
        {
          "internalType": "uint256",
          "name": "tokenAmount",
          "type": "uint256"
        }
      ],
      "name": "recoverERC20",
      "outputs": [],
      "stateMutability": "nonpayable",
      "type": "function"
    },
    {
      "inputs": [],
      "name": "renounceOwnership",
      "outputs": [],
      "stateMutability": "nonpayable",
      "type": "function"
    },
    {
      "inputs": [
        {
          "internalType": "uint256",
          "name": "itemId",
          "type": "uint256"
        }
      ],
      "name": "startAuction",
      "outputs": [],
      "stateMutability": "nonpayable",
      "type": "function"
    },
    {
      "inputs": [
        {
          "internalType": "uint256",
          "name": "itemId",
          "type": "uint256"
        }
      ],
      "name": "totalBidsOnItems",
      "outputs": [
        {
          "internalType": "uint256",
          "name": "totalBids",
          "type": "uint256"
        }
      ],
      "stateMutability": "view",
      "type": "function"
    },
    {
      "inputs": [
        {
          "internalType": "address",
          "name": "newOwner",
          "type": "address"
        }
      ],
      "name": "transferOwnership",
      "outputs": [],
      "stateMutability": "nonpayable",
      "type": "function"
    },
    {
      "inputs": [],
      "name": "treasury",
      "outputs": [
        {
          "internalType": "address",
          "name": "",
          "type": "address"
        }
      ],
      "stateMutability": "view",
      "type": "function"
    },
    {
      "inputs": [
        {
          "internalType": "uint256",
          "name": "itemId",
          "type": "uint256"
        },
        {
          "internalType": "string",
          "name": "metadataURI",
          "type": "string"
        }
      ],
      "name": "updateAuctionMetadata",
      "outputs": [],
      "stateMutability": "nonpayable",
      "type": "function"
    },
    {
      "inputs": [
        {
          "internalType": "address",
          "name": "bidder",
          "type": "address"
        },
        {
          "internalType": "uint256",
          "name": "",
          "type": "uint256"
        }
      ],
      "name": "userBidAuctions",
      "outputs": [
        {
          "internalType": "uint256",
          "name": "auctionIds",
          "type": "uint256"
        }
      ],
      "stateMutability": "view",
      "type": "function"
    }
  ],
  "transactionHash": "0xd8d6f68eb349e31cd128d0ab29ff8425c4e22a5efd0547404efabb67402141c3",
  "args": [
    "0xA82C8f5A03AeB2221abEdB51d9E462aFd9f63CD4",
    "0xFcbb33894844f122686Bd015B1c60A25af1adDA5",
    "0x036cbd53842c5426634e7929541ec2318f3dcf7e",
    "0x57bCA94DD71A03Fb2A10Bb6aC64e151AA102ff62",
    "0xd935e230819AE963626B31f292623106A3dc3B19"
  ],
  "numDeployments": 1,
  "solcInputHash": "669247ac9aa6cb05f3e780c27bdfd281",
  "bytecode": "0x6101006040523480156200001257600080fd5b5060405162001a7838038062001a78833981016040819052620000359162000102565b846001600160a01b0381166200006557604051631e4fbdf760e01b81526000600482015260240160405180910390fd5b620000708162000099565b50600180556001600160a01b0393841660805291831660a052821660c0521660e0525062000182565b600080546001600160a01b038381166001600160a01b0319831681178455604051919092169283917f8be0079c531659141344cd1fd0a4f28419497f9722a3daafe3b4186f6b6457e09190a35050565b6001600160a01b0381168114620000ff57600080fd5b50565b600080600080600060a086880312156200011b57600080fd5b85516200012881620000e9565b60208701519095506200013b81620000e9565b60408701519094506200014e81620000e9565b60608701519093506200016181620000e9565b60808701519092506200017481620000e9565b809150509295509295909350565b60805160a05160c05160e05161188b620001ed60003960008181610255015261101f015260008181610216015261087b01526000818161034e01528181610ebf01528181610f890152610ffa0152600081816103c10152818161092301526109d1015261188b6000f3fe608060405234801561001057600080fd5b50600436106101735760003560e01c80638e5bc606116100de578063c55d0f5611610097578063f279f9ad11610071578063f279f9ad146103e3578063f2fde38b14610403578063f60e597114610416578063fa6b3b531461042957600080fd5b8063c55d0f5614610383578063d2c069f014610396578063dfafd4fd146103bc57600080fd5b80638e5bc606146102cc5780639979ef45146102ec578063998f1b87146102ff578063b172b41114610336578063b2016bd414610349578063c49733891461037057600080fd5b806361d027b31161013057806361d027b31461025057806368bae934146102775780636bfb0d0114610297578063715018a6146102a05780638980f11f146102a85780638da5cb5b146102bb57600080fd5b8063065de74c14610178578063148683191461018d5780631dfb03f8146101b357806327e9f294146101d35780633f1ffcec146101e657806347b0c3b314610211575b600080fd5b61018b6101863660046112cb565b61043c565b005b6101a061019b366004611300565b6104c8565b6040519081526020015b60405180910390f35b6101a06101c13660046112cb565b60036020526000908152604090205481565b61018b6101e13660046113cd565b6104f9565b6101a06101f4366004611402565b600460209081526000928352604080842090915290825290205481565b6102387f000000000000000000000000000000000000000000000000000000000000000081565b6040516001600160a01b0390911681526020016101aa565b6102387f000000000000000000000000000000000000000000000000000000000000000081565b61028a6102853660046112cb565b610617565b6040516101aa919061147e565b6101a060065481565b61018b610754565b61018b6102b6366004611300565b610768565b6000546001600160a01b0316610238565b6101a06102da3660046112cb565b60009081526003602052604090205490565b61018b6102fa3660046112cb565b610807565b61032661030d3660046112cb565b6000908152600260208190526040909120015443101590565b60405190151581526020016101aa565b61018b6103443660046114ef565b610b6b565b6102387f000000000000000000000000000000000000000000000000000000000000000081565b6101a061037e3660046112cb565b610bcd565b6101a06103913660046112cb565b610c1f565b6103a96103a43660046112cb565b610c46565b6040516101aa9796959493929190611536565b6102387f000000000000000000000000000000000000000000000000000000000000000081565b6103f66103f1366004611587565b610d1d565b6040516101aa91906115a2565b61018b610411366004611587565b610d89565b6101a0610424366004611402565b610dc9565b61018b6104373660046115e6565b610df3565b61044461105a565b6000818152600260205260409020600181015460ff16156104785760405163628e388360e01b815260040160405180910390fd5b6001818101805460ff1916909117905561049461012c4361164b565b600282015560405182907f1bb96dff6ab5005aff98cdc0cf176bb7d8e0423cb48e02217d35b042cec81e9f90600090a25050565b600560205281600052604060002081815481106104e457600080fd5b90600052602060002001600091509150505481565b61050161105a565b60068054600091826105128361165e565b909155506040805160e08101825282815260006020808301828152838501838152606085018481526080860185815260a087018b815260c088018790528987526002958690529790952086518155925160018401805460ff19169115159190911790559051928201929092559051600382015590516004820180546001600160a01b0319166001600160a01b0390921691909117905591519293509160058201906105bd9082611701565b5060c091909101516006909101805460ff191691151591909117905560405181907fd7679c733896f0b87259676d45d23836a3b4b3989dcd6acefe09f87e2e2ecda79061060b9085906117c1565b60405180910390a25050565b6040805160e08101825260008082526020820181905291810182905260608082018390526080820183905260a082015260c0810191909152600082815260026020818152604092839020835160e08101855281548152600182015460ff1615159281019290925291820154928101929092526003810154606083015260048101546001600160a01b0316608083015260058101805460a0840191906106bb90611677565b80601f01602080910402602001604051908101604052809291908181526020018280546106e790611677565b80156107345780601f1061070957610100808354040283529160200191610734565b820191906000526020600020905b81548152906001019060200180831161071757829003601f168201915b50505091835250506006919091015460ff16151560209091015292915050565b61075c61105a565b6107666000611087565b565b61077061105a565b816001600160a01b031663a9059cbb6107916000546001600160a01b031690565b6040516001600160e01b031960e084901b1681526001600160a01b039091166004820152602481018490526044016020604051808303816000875af11580156107de573d6000803e3d6000fd5b505050506040513d601f19601f8201168201806040525081019061080291906117d4565b505050565b61080f6110d7565b6000818152600260205260409020600181015460ff16610842576040516301dff5d560e71b815260040160405180910390fd5b806002015443106108665760405163283a4a6160e21b815260040160405180910390fd5b60405163b9209e3360e01b81523360048201527f00000000000000000000000000000000000000000000000000000000000000006001600160a01b03169063b9209e3390602401602060405180830381865afa1580156108ca573d6000803e3d6000fd5b505050506040513d601f19601f820116820180604052508101906108ee91906117d4565b61090b57604051635c427cd960e01b815260040160405180910390fd5b6040516370a0823160e01b81523360048201526001907f00000000000000000000000000000000000000000000000000000000000000006001600160a01b0316906370a0823190602401602060405180830381865afa158015610972573d6000803e3d6000fd5b505050506040513d601f19601f8201168201806040525081019061099691906117f6565b10156109b55760405163356680b760e01b815260040160405180910390fd5b604051632770a7eb60e21b8152336004820152600160248201527f00000000000000000000000000000000000000000000000000000000000000006001600160a01b031690639dc29fac90604401600060405180830381600087803b158015610a1d57600080fd5b505af1158015610a31573d6000803e3d6000fd5b5050506003820154610a459150600161164b565b60038201556004810180546001600160a01b03191633179055610a69600a4361164b565b60028201556000828152600360205260408120805460019290610a8d90849061164b565b909155505060008281526004602090815260408083203384529091528120805460019290610abc90849061164b565b90915550506000828152600460209081526040808320338452909152902054600103610b0557336000908152600560209081526040822080546001810182559083529120018290555b600082815260036020526040908190205460028301549151339285927f51db8e23b3f4479b162fd48823b8402895442b8f6cfd94f66239391881ec7b6f92610b569290918252602082015260400190565b60405180910390a350610b6860018055565b50565b610b7361105a565b600082815260026020526040902060058101610b8f8382611701565b50827f63806e708361275d5f46a92f019ae52dbc009a7f62197ca633271274b4dc1f0383604051610bc091906117c1565b60405180910390a2505050565b600081815260026020819052604082209081015482904310610bf0576000610c00565b438260020154610c00919061180f565b9050610c0d816002611822565b610c17904261164b565b949350505050565b60008181526002602052604081206003810154610c3f9061271090611822565b9392505050565b6002602081905260009182526040909120805460018201549282015460038301546004840154600585018054949660ff1695939492936001600160a01b0390921692610c9190611677565b80601f0160208091040260200160405190810160405280929190818152602001828054610cbd90611677565b8015610d0a5780601f10610cdf57610100808354040283529160200191610d0a565b820191906000526020600020905b815481529060010190602001808311610ced57829003601f168201915b5050506006909301549192505060ff1687565b6001600160a01b038116600090815260056020908152604091829020805483518184028101840190945280845260609392830182828015610d7d57602002820191906000526020600020905b815481526020019060010190808311610d69575b50505050509050919050565b610d9161105a565b6001600160a01b038116610dc057604051631e4fbdf760e01b8152600060048201526024015b60405180910390fd5b610b6881611087565b60008281526004602090815260408083206001600160a01b03851684529091529020545b92915050565b6000858152600260205260409020600181015460ff1680610e175750806002015443105b15610e3557604051636463738960e01b815260040160405180910390fd5b600681015460ff1615610e5b576040516322d0056560e11b815260040160405180910390fd5b60048101546001600160a01b03163314610e8857604051631712a9f760e21b815260040160405180910390fd5b6003810154600090610e9d9061271090611822565b6040516370a0823160e01b815233600482015290915081906001600160a01b037f000000000000000000000000000000000000000000000000000000000000000016906370a0823190602401602060405180830381865afa158015610f06573d6000803e3d6000fd5b505050506040513d601f19601f82011682018060405250810190610f2a91906117f6565b1015610f495760405163356680b760e01b815260040160405180910390fd5b60405163d505accf60e01b8152336004820152306024820152604481018290526064810187905260ff8616608482015260a4810185905260c481018490527f00000000000000000000000000000000000000000000000000000000000000006001600160a01b03169063d505accf9060e401600060405180830381600087803b158015610fd557600080fd5b505af1158015610fe9573d6000803e3d6000fd5b506110449250506001600160a01b037f0000000000000000000000000000000000000000000000000000000000000000169050337f000000000000000000000000000000000000000000000000000000000000000084611101565b50600601805460ff191660011790555050505050565b6000546001600160a01b031633146107665760405163118cdaa760e01b8152336004820152602401610db7565b600080546001600160a01b038381166001600160a01b0319831681178455604051919092169283917f8be0079c531659141344cd1fd0a4f28419497f9722a3daafe3b4186f6b6457e09190a35050565b6002600154036110fa57604051633ee5aeb560e01b815260040160405180910390fd5b6002600155565b604080516001600160a01b0385811660248301528416604482015260648082018490528251808303909101815260849091019091526020810180516001600160e01b03166323b872dd60e01b17905261115b908590611161565b50505050565b60006111766001600160a01b038416836111c4565b9050805160001415801561119b57508080602001905181019061119991906117d4565b155b1561080257604051635274afe760e01b81526001600160a01b0384166004820152602401610db7565b6060610c3f8383600084600080856001600160a01b031684866040516111ea9190611839565b60006040518083038185875af1925050503d8060008114611227576040519150601f19603f3d011682016040523d82523d6000602084013e61122c565b606091505b509150915061123c868383611246565b9695505050505050565b60608261125b57611256826112a2565b610c3f565b815115801561127257506001600160a01b0384163b155b1561129b57604051639996b31560e01b81526001600160a01b0385166004820152602401610db7565b5080610c3f565b8051156112b25780518082602001fd5b604051630a12f52160e11b815260040160405180910390fd5b6000602082840312156112dd57600080fd5b5035919050565b80356001600160a01b03811681146112fb57600080fd5b919050565b6000806040838503121561131357600080fd5b61131c836112e4565b946020939093013593505050565b634e487b7160e01b600052604160045260246000fd5b600082601f83011261135157600080fd5b813567ffffffffffffffff8082111561136c5761136c61132a565b604051601f8301601f19908116603f011681019082821181831017156113945761139461132a565b816040528381528660208588010111156113ad57600080fd5b836020870160208301376000602085830101528094505050505092915050565b6000602082840312156113df57600080fd5b813567ffffffffffffffff8111156113f657600080fd5b610c1784828501611340565b6000806040838503121561141557600080fd5b82359150611425602084016112e4565b90509250929050565b60005b83811015611449578181015183820152602001611431565b50506000910152565b6000815180845261146a81602086016020860161142e565b601f01601f19169290920160200192915050565b6020815281516020820152602082015115156040820152604082015160608201526060820151608082015260018060a01b0360808301511660a0820152600060a083015160e060c08401526114d7610100840182611452565b905060c0840151151560e08401528091505092915050565b6000806040838503121561150257600080fd5b82359150602083013567ffffffffffffffff81111561152057600080fd5b61152c85828601611340565b9150509250929050565b878152861515602082015285604082015284606082015260018060a01b038416608082015260e060a0820152600061157160e0830185611452565b905082151560c083015298975050505050505050565b60006020828403121561159957600080fd5b610c3f826112e4565b6020808252825182820181905260009190848201906040850190845b818110156115da578351835292840192918401916001016115be565b50909695505050505050565b600080600080600060a086880312156115fe57600080fd5b8535945060208601359350604086013560ff8116811461161d57600080fd5b94979396509394606081013594506080013592915050565b634e487b7160e01b600052601160045260246000fd5b80820180821115610ded57610ded611635565b60006001820161167057611670611635565b5060010190565b600181811c9082168061168b57607f821691505b6020821081036116ab57634e487b7160e01b600052602260045260246000fd5b50919050565b601f821115610802576000816000526020600020601f850160051c810160208610156116da5750805b601f850160051c820191505b818110156116f9578281556001016116e6565b505050505050565b815167ffffffffffffffff81111561171b5761171b61132a565b61172f816117298454611677565b846116b1565b602080601f831160018114611764576000841561174c5750858301515b600019600386901b1c1916600185901b1785556116f9565b600085815260208120601f198616915b8281101561179357888601518255948401946001909101908401611774565b50858210156117b15787850151600019600388901b60f8161c191681555b5050505050600190811b01905550565b602081526000610c3f6020830184611452565b6000602082840312156117e657600080fd5b81518015158114610c3f57600080fd5b60006020828403121561180857600080fd5b5051919050565b81810381811115610ded57610ded611635565b8082028115828204841417610ded57610ded611635565b6000825161184b81846020870161142e565b919091019291505056fea264697066735822122068ca66d2915396a193389db329e1f80f17794deff7b6ea986e4c95b2139f2fd564736f6c63430008180033",
  "devdoc": {
    "errors": {
      "AddressEmptyCode(address)": [
        {
          "details": "There's no code at `target` (it is not a contract)."
        }
      ],
      "AddressInsufficientBalance(address)": [
        {
          "details": "The ETH balance of the account is not enough to perform the operation."
        }
      ],
      "FailedInnerCall()": [
        {
          "details": "A call to an address target failed. The target may have reverted."
        }
      ],
      "OwnableInvalidOwner(address)": [
        {
          "details": "The owner is not a valid owner account. (eg. `address(0)`)"
        }
      ],
      "OwnableUnauthorizedAccount(address)": [
        {
          "details": "The caller account is not authorized to perform an operation."
        }
      ],
      "ReentrancyGuardReentrantCall()": [
        {
          "details": "Unauthorized reentrant call."
        }
      ],
      "SafeERC20FailedOperation(address)": [
        {
          "details": "An operation with an ERC20 token failed."
        }
      ]
    },
    "kind": "dev",
    "methods": {
      "getAuctionItem(uint256)": {
        "params": {
          "itemId": "The ID of the auction item"
        },
        "returns": {
          "_0": "The auction item"
        }
      },
      "getBids(uint256,address)": {
        "params": {
          "bidder": "The address of the bidder",
          "itemId": "The ID of the auction item"
        },
        "returns": {
          "_0": "The number of bids"
        }
      },
      "getCurrentPrice(uint256)": {
        "params": {
          "itemId": "The ID of the auction item"
        },
        "returns": {
          "_0": "The current price"
        }
      },
      "getEstimatedEndTime(uint256)": {
        "params": {
          "itemId": "The ID of the auction item"
        },
        "returns": {
          "_0": "The estimated end time"
        }
      },
      "getTotalBids(uint256)": {
        "params": {
          "itemId": "The ID of the auction item"
        },
        "returns": {
          "_0": "The total number of bids"
        }
      },
      "getUserBidAuctions(address)": {
        "params": {
          "user": "The address of the user"
        },
        "returns": {
          "_0": "The list of auction IDs"
        }
      },
      "isAuctionEnded(uint256)": {
        "params": {
          "itemId": "The ID of the auction item"
        },
        "returns": {
          "_0": "True if the auction has ended"
        }
      },
      "owner()": {
        "details": "Returns the address of the current owner."
      },
      "placeBid(uint256)": {
        "params": {
          "itemId": "The ID of the auction item"
        }
      },
      "renounceOwnership()": {
        "details": "Leaves the contract without owner. It will not be possible to call `onlyOwner` functions. Can only be called by the current owner. NOTE: Renouncing ownership will leave the contract without an owner, thereby disabling any functionality that is only available to the owner."
      },
      "transferOwnership(address)": {
        "details": "Transfers ownership of the contract to a new account (`newOwner`). Can only be called by the current owner."
      }
    },
    "stateVariables": {
      "EXTENSION_DURATION_BLOCKS": {
        "details": "The duration of the auction extension, with each bid placed, in blocks"
      },
      "INITIAL_DURATION_BLOCKS": {
        "details": "The initial duration of the auction in blocks"
      },
      "PRICE_INCREASE_STEP": {
        "details": "The amount the price increases with each bid in USDC"
      }
    },
    "version": 1
  },
  "userdoc": {
    "kind": "user",
    "methods": {
      "getAuctionItem(uint256)": {
        "notice": "Get the auction item with the given ID"
      },
      "getBids(uint256,address)": {
        "notice": "Get the number of bids the given bidder has placed on the given item"
      },
      "getCurrentPrice(uint256)": {
        "notice": "Get the current USDC price of the given item"
      },
      "getEstimatedEndTime(uint256)": {
        "notice": "Get the estimated end time of the given item"
      },
      "getTotalBids(uint256)": {
        "notice": "Get the total number of bids on the given item"
      },
      "getUserBidAuctions(address)": {
        "notice": "Get the list of auction IDs the given user has bid on"
      },
      "isAuctionEnded(uint256)": {
        "notice": "Check if the auction has ended"
      },
      "placeBid(uint256)": {
        "notice": "Place a bid on the given item"
      }
    },
    "version": 1
  },
  "storageLayout": {
    "storage": [
      {
        "astId": 883,
        "contract": "contracts/MicroBidAuction.sol:MicroBidAuction",
        "label": "_owner",
        "offset": 0,
        "slot": "0",
        "type": "t_address"
      },
      {
        "astId": 2645,
        "contract": "contracts/MicroBidAuction.sol:MicroBidAuction",
        "label": "_status",
        "offset": 0,
        "slot": "1",
        "type": "t_uint256"
      },
      {
        "astId": 5457,
        "contract": "contracts/MicroBidAuction.sol:MicroBidAuction",
        "label": "auctionItems",
        "offset": 0,
        "slot": "2",
        "type": "t_mapping(t_uint256,t_struct(AuctionItem)6674_storage)"
      },
      {
        "astId": 5461,
        "contract": "contracts/MicroBidAuction.sol:MicroBidAuction",
        "label": "totalBidsOnItems",
        "offset": 0,
        "slot": "3",
        "type": "t_mapping(t_uint256,t_uint256)"
      },
      {
        "astId": 5467,
        "contract": "contracts/MicroBidAuction.sol:MicroBidAuction",
        "label": "bids",
        "offset": 0,
        "slot": "4",
        "type": "t_mapping(t_uint256,t_mapping(t_address,t_uint256))"
      },
      {
        "astId": 5472,
        "contract": "contracts/MicroBidAuction.sol:MicroBidAuction",
        "label": "userBidAuctions",
        "offset": 0,
        "slot": "5",
        "type": "t_mapping(t_address,t_array(t_uint256)dyn_storage)"
      },
      {
        "astId": 5474,
        "contract": "contracts/MicroBidAuction.sol:MicroBidAuction",
        "label": "itemCount",
        "offset": 0,
        "slot": "6",
        "type": "t_uint256"
      }
    ],
    "types": {
      "t_address": {
        "encoding": "inplace",
        "label": "address",
        "numberOfBytes": "20"
      },
      "t_array(t_uint256)dyn_storage": {
        "base": "t_uint256",
        "encoding": "dynamic_array",
        "label": "uint256[]",
        "numberOfBytes": "32"
      },
      "t_bool": {
        "encoding": "inplace",
        "label": "bool",
        "numberOfBytes": "1"
      },
      "t_mapping(t_address,t_array(t_uint256)dyn_storage)": {
        "encoding": "mapping",
        "key": "t_address",
        "label": "mapping(address => uint256[])",
        "numberOfBytes": "32",
        "value": "t_array(t_uint256)dyn_storage"
      },
      "t_mapping(t_address,t_uint256)": {
        "encoding": "mapping",
        "key": "t_address",
        "label": "mapping(address => uint256)",
        "numberOfBytes": "32",
        "value": "t_uint256"
      },
      "t_mapping(t_uint256,t_mapping(t_address,t_uint256))": {
        "encoding": "mapping",
        "key": "t_uint256",
        "label": "mapping(uint256 => mapping(address => uint256))",
        "numberOfBytes": "32",
        "value": "t_mapping(t_address,t_uint256)"
      },
      "t_mapping(t_uint256,t_struct(AuctionItem)6674_storage)": {
        "encoding": "mapping",
        "key": "t_uint256",
        "label": "mapping(uint256 => struct Types.AuctionItem)",
        "numberOfBytes": "32",
        "value": "t_struct(AuctionItem)6674_storage"
      },
      "t_mapping(t_uint256,t_uint256)": {
        "encoding": "mapping",
        "key": "t_uint256",
        "label": "mapping(uint256 => uint256)",
        "numberOfBytes": "32",
        "value": "t_uint256"
      },
      "t_string_storage": {
        "encoding": "bytes",
        "label": "string",
        "numberOfBytes": "32"
      },
      "t_struct(AuctionItem)6674_storage": {
        "encoding": "inplace",
        "label": "struct Types.AuctionItem",
        "members": [
          {
            "astId": 6661,
            "contract": "contracts/MicroBidAuction.sol:MicroBidAuction",
            "label": "itemId",
            "offset": 0,
            "slot": "0",
            "type": "t_uint256"
          },
          {
            "astId": 6663,
            "contract": "contracts/MicroBidAuction.sol:MicroBidAuction",
            "label": "isActive",
            "offset": 0,
            "slot": "1",
            "type": "t_bool"
          },
          {
            "astId": 6665,
            "contract": "contracts/MicroBidAuction.sol:MicroBidAuction",
            "label": "endBlock",
            "offset": 0,
            "slot": "2",
            "type": "t_uint256"
          },
          {
            "astId": 6667,
            "contract": "contracts/MicroBidAuction.sol:MicroBidAuction",
            "label": "totalBids",
            "offset": 0,
            "slot": "3",
            "type": "t_uint256"
          },
          {
            "astId": 6669,
            "contract": "contracts/MicroBidAuction.sol:MicroBidAuction",
            "label": "latestBidder",
            "offset": 0,
            "slot": "4",
            "type": "t_address"
          },
          {
            "astId": 6671,
            "contract": "contracts/MicroBidAuction.sol:MicroBidAuction",
            "label": "metadataURI",
            "offset": 0,
            "slot": "5",
            "type": "t_string_storage"
          },
          {
            "astId": 6673,
            "contract": "contracts/MicroBidAuction.sol:MicroBidAuction",
            "label": "claimed",
            "offset": 0,
            "slot": "6",
            "type": "t_bool"
          }
        ],
        "numberOfBytes": "224"
      },
      "t_uint256": {
        "encoding": "inplace",
        "label": "uint256",
        "numberOfBytes": "32"
      }
    }
  }
}