{
  "address": "0xA1b5884235Fe70a512bAbbf94BAaa39aC10CCC1f",
  "abi": [
    {
      "inputs": [
        {
          "internalType": "address",
          "name": "_owner",
          "type": "address"
        },
        {
          "internalType": "contract IWorldID",
          "name": "_worldId",
          "type": "address"
        },
        {
          "internalType": "string",
          "name": "_appId",
          "type": "string"
        },
        {
          "internalType": "string",
          "name": "_actionId",
          "type": "string"
        },
        {
          "internalType": "contract IAttester",
          "name": "_attester",
          "type": "address"
        }
      ],
      "stateMutability": "nonpayable",
      "type": "constructor"
    },
    {
      "inputs": [],
      "name": "AttesterNotSet",
      "type": "error"
    },
    {
      "inputs": [],
      "name": "InvalidNullifier",
      "type": "error"
    },
    {
      "inputs": [
        {
          "internalType": "address",
          "name": "owner",
          "type": "address"
        }
      ],
      "name": "OwnableInvalidOwner",
      "type": "error"
    },
    {
      "inputs": [
        {
          "internalType": "address",
          "name": "account",
          "type": "address"
        }
      ],
      "name": "OwnableUnauthorizedAccount",
      "type": "error"
    },
    {
      "inputs": [],
      "name": "ReentrancyGuardReentrantCall",
      "type": "error"
    },
    {
      "anonymous": false,
      "inputs": [
        {
          "indexed": true,
          "internalType": "address",
          "name": "attester",
          "type": "address"
        }
      ],
      "name": "AttesterUpdated",
      "type": "event"
    },
    {
      "anonymous": false,
      "inputs": [],
      "name": "ContractDeployed",
      "type": "event"
    },
    {
      "anonymous": false,
      "inputs": [
        {
          "indexed": true,
          "internalType": "address",
          "name": "previousOwner",
          "type": "address"
        },
        {
          "indexed": true,
          "internalType": "address",
          "name": "newOwner",
          "type": "address"
        }
      ],
      "name": "OwnershipTransferred",
      "type": "event"
    },
    {
      "anonymous": false,
      "inputs": [
        {
          "indexed": true,
          "internalType": "address",
          "name": "user",
          "type": "address"
        }
      ],
      "name": "VerificationSuccessful",
      "type": "event"
    },
    {
      "inputs": [],
      "name": "attester",
      "outputs": [
        {
          "internalType": "contract IAttester",
          "name": "",
          "type": "address"
        }
      ],
      "stateMutability": "view",
      "type": "function"
    },
    {
      "inputs": [
        {
          "internalType": "uint256",
          "name": "_nullifierHash",
          "type": "uint256"
        }
      ],
      "name": "getNullifierHash",
      "outputs": [
        {
          "internalType": "bool",
          "name": "",
          "type": "bool"
        }
      ],
      "stateMutability": "view",
      "type": "function"
    },
    {
      "inputs": [],
      "name": "owner",
      "outputs": [
        {
          "internalType": "address",
          "name": "",
          "type": "address"
        }
      ],
      "stateMutability": "view",
      "type": "function"
    },
    {
      "inputs": [],
      "name": "renounceOwnership",
      "outputs": [],
      "stateMutability": "nonpayable",
      "type": "function"
    },
    {
      "inputs": [
        {
          "internalType": "contract IAttester",
          "name": "_attester",
          "type": "address"
        }
      ],
      "name": "setAttester",
      "outputs": [],
      "stateMutability": "nonpayable",
      "type": "function"
    },
    {
      "inputs": [
        {
          "internalType": "address",
          "name": "newOwner",
          "type": "address"
        }
      ],
      "name": "transferOwnership",
      "outputs": [],
      "stateMutability": "nonpayable",
      "type": "function"
    },
    {
      "inputs": [
        {
          "internalType": "address",
          "name": "_signal",
          "type": "address"
        },
        {
          "internalType": "uint256",
          "name": "_root",
          "type": "uint256"
        },
        {
          "internalType": "uint256",
          "name": "_nullifierHash",
          "type": "uint256"
        },
        {
          "internalType": "uint256[8]",
          "name": "_proof",
          "type": "uint256[8]"
        }
      ],
      "name": "verify",
      "outputs": [
        {
          "internalType": "bytes32",
          "name": "",
          "type": "bytes32"
        }
      ],
      "stateMutability": "nonpayable",
      "type": "function"
    }
  ],
  "transactionHash": "0x926cb3624215a77a0ce93c7b92e161e8c515f2f6603a7a5113e2b33f72d4c8c9",
  "args": [
    "0xA82C8f5A03AeB2221abEdB51d9E462aFd9f63CD4",
    "0x42FF98C4E85212a5D31358ACbFe76a621b50fC02",
    "app_staging_8ca552a220222cb821d8f3906039beaa",
    "proof-of-personhood",
    "0xF425aA733164f7f0243A394aa58aa03E4229ABFb"
  ],
  "numDeployments": 5,
  "solcInputHash": "60e197f8850af8262f55ef912d73205e",
  "bytecode": "0x60e0604052600160c0523480156200001657600080fd5b5060405162000a5338038062000a538339810160408190526200003991620002bd565b846001600160a01b0381166200006957604051631e4fbdf760e01b81526000600482015260240160405180910390fd5b620000748162000150565b50600180556001600160a01b03848116608052600380546001600160a01b031916918316919091179055604051620000e590620000d190620000bb90869060200162000369565b60408051601f19818403018152919052620001a0565b83604051602001620000bb92919062000387565b60a052600080805260026020527fac33ff75c19e70fe83507db0d683fd3465c996598dc972688b7ace676c89077b805460ff191660011790556040517fdaf2a119a79dac8445fdc10627116c03f4b0ffb5cf1aee5223ac18a7453e631f9190a15050505050620003af565b600080546001600160a01b038381166001600160a01b0319831681178455604051919092169283917f8be0079c531659141344cd1fd0a4f28419497f9722a3daafe3b4186f6b6457e09190a35050565b6000600882604051602001620001b7919062000369565b60408051601f198184030181529190528051602090910120901c92915050565b6001600160a01b0381168114620001ed57600080fd5b50565b634e487b7160e01b600052604160045260246000fd5b60005b838110156200022357818101518382015260200162000209565b50506000910152565b600082601f8301126200023e57600080fd5b81516001600160401b03808211156200025b576200025b620001f0565b604051601f8301601f19908116603f01168101908282118183101715620002865762000286620001f0565b81604052838152866020858801011115620002a057600080fd5b620002b384602083016020890162000206565b9695505050505050565b600080600080600060a08688031215620002d657600080fd5b8551620002e381620001d7565b6020870151909550620002f681620001d7565b60408701519094506001600160401b03808211156200031457600080fd5b6200032289838a016200022c565b945060608801519150808211156200033957600080fd5b5062000348888289016200022c565b92505060808601516200035b81620001d7565b809150509295509295909350565b600082516200037d81846020870162000206565b9190910192915050565b82815260008251620003a181602085016020870162000206565b919091016020019392505050565b60805160a05160c051610674620003df60003960006101dc0152600061023e015260006101ac01526106746000f3fe608060405234801561001057600080fd5b506004361061007d5760003560e01c806385b91c951161005b57806385b91c95146100dd5780638da5cb5b146101105780639daf85ab14610121578063f2fde38b1461013457600080fd5b80631e6ab5331461008257806347b0c3b3146100a8578063715018a6146100d3575b600080fd5b61009561009036600461052e565b610147565b6040519081526020015b60405180910390f35b6003546100bb906001600160a01b031681565b6040516001600160a01b03909116815260200161009f565b6100db610394565b005b6101006100eb36600461057e565b60009081526002602052604090205460ff1690565b604051901515815260200161009f565b6000546001600160a01b03166100bb565b6100db61012f366004610597565b6103a8565b6100db610142366004610597565b6103fa565b600061015161043d565b6003546001600160a01b031661017a5760405163265e441160e21b815260040160405180910390fd5b60008381526002602052604090205460ff16156101aa57604051632ec8265960e11b815260040160405180910390fd5b7f00000000000000000000000000000000000000000000000000000000000000006001600160a01b0316633bc778e3857f000000000000000000000000000000000000000000000000000000000000000061023b89604051602001610227919060609190911b6bffffffffffffffffffffffff1916815260140190565b604051602081830303815290604052610467565b877f0000000000000000000000000000000000000000000000000000000000000000886040518763ffffffff1660e01b815260040161027f969594939291906105bb565b60006040518083038186803b15801561029757600080fd5b505afa1580156102ab573d6000803e3d6000fd5b505050600084815260026020526040808220805460ff19166001179055516001600160a01b03881692507fdcae470f5d7900ad0f27f39e8454d4ee863e57e7a9693c91ceb401700726aeb39190a26040805160208101825284815260035491516318ba971d60e11b81526001600160a01b03888116600483015282516024830152919260009216906331752e3a906044016020604051808303816000875af115801561035b573d6000803e3d6000fd5b505050506040513d601f19601f8201168201806040525081019061037f91906105f6565b9250505061038c60018055565b949350505050565b61039c61049c565b6103a660006104c9565b565b6103b061049c565b600380546001600160a01b0319166001600160a01b0383169081179091556040517f2d685970da1fe08d9d7ace6f5a982ede39c817eb28d1ac4935c913c4866248ca90600090a250565b61040261049c565b6001600160a01b03811661043157604051631e4fbdf760e01b8152600060048201526024015b60405180910390fd5b61043a816104c9565b50565b60026001540361046057604051633ee5aeb560e01b815260040160405180910390fd5b6002600155565b600060088260405160200161047c919061060f565b60408051601f198184030181529190528051602090910120901c92915050565b6000546001600160a01b031633146103a65760405163118cdaa760e01b8152336004820152602401610428565b600080546001600160a01b038381166001600160a01b0319831681178455604051919092169283917f8be0079c531659141344cd1fd0a4f28419497f9722a3daafe3b4186f6b6457e09190a35050565b6001600160a01b038116811461043a57600080fd5b60008060008061016080868803121561054657600080fd5b853561055181610519565b9450602086013593506040860135925080860187101561057057600080fd5b509295919450926060019150565b60006020828403121561059057600080fd5b5035919050565b6000602082840312156105a957600080fd5b81356105b481610519565b9392505050565b60006101a08201905087825260ff871660208301528560408301528460608301528360808301526101008360a0840137979650505050505050565b60006020828403121561060857600080fd5b5051919050565b6000825160005b818110156106305760208186018101518583015201610616565b50600092019182525091905056fea2646970667358221220616d13cb8dfe32092483df9466d0b636b30066859bd39bd21915eef0a38ad57a64736f6c63430008180033",
  "devdoc": {
    "errors": {
      "OwnableInvalidOwner(address)": [
        {
          "details": "The owner is not a valid owner account. (eg. `address(0)`)"
        }
      ],
      "OwnableUnauthorizedAccount(address)": [
        {
          "details": "The caller account is not authorized to perform an operation."
        }
      ],
      "ReentrancyGuardReentrantCall()": [
        {
          "details": "Unauthorized reentrant call."
        }
      ]
    },
    "events": {
      "AttesterUpdated(address)": {
        "details": "Emitted when the attester for the contract is set or updated.",
        "params": {
          "attester": "The address of the attester."
        }
      },
      "VerificationSuccessful(address)": {
        "details": "Emitted when a user successfully verifies their proof.",
        "params": {
          "user": "The address of the user who submitted the proof."
        }
      }
    },
    "kind": "dev",
    "methods": {
      "constructor": {
        "params": {
          "_actionId": "The World ID action ID",
          "_appId": "The World ID app ID",
          "_worldId": "The WorldID instance that will verify the proofs"
        }
      },
      "owner()": {
        "details": "Returns the address of the current owner."
      },
      "renounceOwnership()": {
        "details": "Leaves the contract without owner. It will not be possible to call `onlyOwner` functions. Can only be called by the current owner. NOTE: Renouncing ownership will leave the contract without an owner, thereby disabling any functionality that is only available to the owner."
      },
      "transferOwnership(address)": {
        "details": "Transfers ownership of the contract to a new account (`newOwner`). Can only be called by the current owner."
      },
      "verify(address,uint256,uint256,uint256[8])": {
        "params": {
          "_nullifierHash": "The nullifier hash for this proof, preventing double signaling.",
          "_proof": "The zero-knowledge proof that demonstrates the claimer is registered with World ID.",
          "_root": "The root of the Merkle tree.",
          "_signal": "The address of the submitter."
        }
      }
    },
    "stateVariables": {
      "externalNullifier": {
        "details": "The contract's external nullifier hash"
      },
      "groupId": {
        "details": "The World ID group ID"
      },
      "nullifierHashes": {
        "details": "Whether a nullifier hash has been used already. Used to guarantee an action is only performed once by a single person"
      },
      "worldId": {
        "details": "The World ID instance that will be used for verifying proofs"
      }
    },
    "version": 1
  },
  "userdoc": {
    "errors": {
      "InvalidNullifier()": [
        {
          "notice": "Thrown when attempting to reuse a nullifier"
        }
      ]
    },
    "kind": "user",
    "methods": {},
    "version": 1
  },
  "storageLayout": {
    "storage": [
      {
        "astId": 883,
        "contract": "contracts/MicroBidPoPVerifier.sol:MicroBidPoPVerifier",
        "label": "_owner",
        "offset": 0,
        "slot": "0",
        "type": "t_address"
      },
      {
        "astId": 2645,
        "contract": "contracts/MicroBidPoPVerifier.sol:MicroBidPoPVerifier",
        "label": "_status",
        "offset": 0,
        "slot": "1",
        "type": "t_uint256"
      },
      {
        "astId": 6194,
        "contract": "contracts/MicroBidPoPVerifier.sol:MicroBidPoPVerifier",
        "label": "nullifierHashes",
        "offset": 0,
        "slot": "2",
        "type": "t_mapping(t_uint256,t_bool)"
      },
      {
        "astId": 6197,
        "contract": "contracts/MicroBidPoPVerifier.sol:MicroBidPoPVerifier",
        "label": "attester",
        "offset": 0,
        "slot": "3",
        "type": "t_contract(IAttester)6849"
      }
    ],
    "types": {
      "t_address": {
        "encoding": "inplace",
        "label": "address",
        "numberOfBytes": "20"
      },
      "t_bool": {
        "encoding": "inplace",
        "label": "bool",
        "numberOfBytes": "1"
      },
      "t_contract(IAttester)6849": {
        "encoding": "inplace",
        "label": "contract IAttester",
        "numberOfBytes": "20"
      },
      "t_mapping(t_uint256,t_bool)": {
        "encoding": "mapping",
        "key": "t_uint256",
        "label": "mapping(uint256 => bool)",
        "numberOfBytes": "32",
        "value": "t_bool"
      },
      "t_uint256": {
        "encoding": "inplace",
        "label": "uint256",
        "numberOfBytes": "32"
      }
    }
  }
}