{
  "address": "0x5b8b3F1af05409D7866c521Ab425Aa074cf5CdcB",
  "abi": [
    {
      "inputs": [
        {
          "internalType": "address",
          "name": "owner",
          "type": "address"
        },
        {
          "internalType": "address",
          "name": "_usdc",
          "type": "address"
        },
        {
          "internalType": "contract IBidToken",
          "name": "_bidToken",
          "type": "address"
        },
        {
          "internalType": "contract IAttester",
          "name": "_attester",
          "type": "address"
        }
      ],
      "stateMutability": "nonpayable",
      "type": "constructor"
    },
    {
      "inputs": [
        {
          "internalType": "address",
          "name": "target",
          "type": "address"
        }
      ],
      "name": "AddressEmptyCode",
      "type": "error"
    },
    {
      "inputs": [
        {
          "internalType": "address",
          "name": "account",
          "type": "address"
        }
      ],
      "name": "AddressInsufficientBalance",
      "type": "error"
    },
    {
      "inputs": [],
      "name": "FailedInnerCall",
      "type": "error"
    },
    {
      "inputs": [],
      "name": "InvalidAmount",
      "type": "error"
    },
    {
      "inputs": [],
      "name": "InvalidRecipient",
      "type": "error"
    },
    {
      "inputs": [
        {
          "internalType": "address",
          "name": "owner",
          "type": "address"
        }
      ],
      "name": "OwnableInvalidOwner",
      "type": "error"
    },
    {
      "inputs": [
        {
          "internalType": "address",
          "name": "account",
          "type": "address"
        }
      ],
      "name": "OwnableUnauthorizedAccount",
      "type": "error"
    },
    {
      "inputs": [
        {
          "internalType": "address",
          "name": "token",
          "type": "address"
        }
      ],
      "name": "SafeERC20FailedOperation",
      "type": "error"
    },
    {
      "inputs": [],
      "name": "UnauthorizedRecipient",
      "type": "error"
    },
    {
      "anonymous": false,
      "inputs": [
        {
          "indexed": true,
          "internalType": "address",
          "name": "recipient",
          "type": "address"
        },
        {
          "indexed": false,
          "internalType": "uint256",
          "name": "amount",
          "type": "uint256"
        }
      ],
      "name": "BidTokensMinted",
      "type": "event"
    },
    {
      "anonymous": false,
      "inputs": [
        {
          "indexed": true,
          "internalType": "address",
          "name": "previousOwner",
          "type": "address"
        },
        {
          "indexed": true,
          "internalType": "address",
          "name": "newOwner",
          "type": "address"
        }
      ],
      "name": "OwnershipTransferred",
      "type": "event"
    },
    {
      "inputs": [],
      "name": "BIDS_PER_DOLLAR",
      "outputs": [
        {
          "internalType": "uint8",
          "name": "",
          "type": "uint8"
        }
      ],
      "stateMutability": "view",
      "type": "function"
    },
    {
      "inputs": [],
      "name": "attester",
      "outputs": [
        {
          "internalType": "contract IAttester",
          "name": "",
          "type": "address"
        }
      ],
      "stateMutability": "view",
      "type": "function"
    },
    {
      "inputs": [],
      "name": "bidToken",
      "outputs": [
        {
          "internalType": "contract IBidToken",
          "name": "",
          "type": "address"
        }
      ],
      "stateMutability": "view",
      "type": "function"
    },
    {
      "inputs": [
        {
          "internalType": "address",
          "name": "to",
          "type": "address"
        },
        {
          "internalType": "uint256",
          "name": "amount",
          "type": "uint256"
        }
      ],
      "name": "mintBidTokens",
      "outputs": [],
      "stateMutability": "nonpayable",
      "type": "function"
    },
    {
      "inputs": [
        {
          "internalType": "address",
          "name": "to",
          "type": "address"
        },
        {
          "internalType": "uint256",
          "name": "amount",
          "type": "uint256"
        },
        {
          "internalType": "uint256",
          "name": "deadline",
          "type": "uint256"
        },
        {
          "internalType": "bytes",
          "name": "signature",
          "type": "bytes"
        }
      ],
      "name": "mintBidTokensWithSig",
      "outputs": [],
      "stateMutability": "nonpayable",
      "type": "function"
    },
    {
      "inputs": [],
      "name": "owner",
      "outputs": [
        {
          "internalType": "address",
          "name": "",
          "type": "address"
        }
      ],
      "stateMutability": "view",
      "type": "function"
    },
    {
      "inputs": [],
      "name": "renounceOwnership",
      "outputs": [],
      "stateMutability": "nonpayable",
      "type": "function"
    },
    {
      "inputs": [
        {
          "internalType": "address",
          "name": "newOwner",
          "type": "address"
        }
      ],
      "name": "transferOwnership",
      "outputs": [],
      "stateMutability": "nonpayable",
      "type": "function"
    },
    {
      "inputs": [],
      "name": "usdc",
      "outputs": [
        {
          "internalType": "address",
          "name": "",
          "type": "address"
        }
      ],
      "stateMutability": "view",
      "type": "function"
    },
    {
      "inputs": [
        {
          "internalType": "address",
          "name": "recipient",
          "type": "address"
        },
        {
          "internalType": "uint256",
          "name": "amount",
          "type": "uint256"
        }
      ],
      "name": "withdraw",
      "outputs": [],
      "stateMutability": "nonpayable",
      "type": "function"
    }
  ],
  "transactionHash": "0xe264658c115a6a83b7132faedf35cc3edf62996c6902281d92aad3f95a903688",
  "args": [
    "0xA82C8f5A03AeB2221abEdB51d9E462aFd9f63CD4",
    "0x036cbd53842c5426634e7929541ec2318f3dcf7e",
    "0xCb29A4c04Fab0ac29B47d563dFdA6A12b41276F2",
    "0xCb02d40f7e52Ee3f52eD266b9c1317b0512974e6"
  ],
  "numDeployments": 2,
  "solcInputHash": "60e197f8850af8262f55ef912d73205e",
  "bytecode": "0x60e060405234801561001057600080fd5b50604051610cf5380380610cf583398101604081905261002f916100ee565b836001600160a01b03811661005e57604051631e4fbdf760e01b81526000600482015260240160405180910390fd5b61006781610086565b506001600160a01b0392831660805290821660a0521660c0525061014d565b600080546001600160a01b038381166001600160a01b0319831681178455604051919092169283917f8be0079c531659141344cd1fd0a4f28419497f9722a3daafe3b4186f6b6457e09190a35050565b6001600160a01b03811681146100eb57600080fd5b50565b6000806000806080858703121561010457600080fd5b845161010f816100d6565b6020860151909450610120816100d6565b6040860151909350610131816100d6565b6060860151909250610142816100d6565b939692955090935050565b60805160a05160c051610b516101a46000396000818160ec0152610482015260008181610154015261059e01526000818160a8015281816101eb015281816102ec0152818161036f01526105320152610b516000f3fe608060405234801561001057600080fd5b506004361061009e5760003560e01c80639be2ccef116100665780639be2ccef1461013c578063dfafd4fd1461014f578063ebac9cdf14610176578063f2fde38b14610190578063f3fef3a3146101a357600080fd5b80633e413bee146100a357806347b0c3b3146100e7578063715018a61461010e5780638beb42e6146101185780638da5cb5b1461012b575b600080fd5b6100ca7f000000000000000000000000000000000000000000000000000000000000000081565b6040516001600160a01b0390911681526020015b60405180910390f35b6100ca7f000000000000000000000000000000000000000000000000000000000000000081565b6101166101b6565b005b6101166101263660046108ad565b6101ca565b6000546001600160a01b03166100ca565b61011661014a366004610982565b61026a565b6100ca7f000000000000000000000000000000000000000000000000000000000000000081565b61017e600a81565b60405160ff90911681526020016100de565b61011661019e3660046109ac565b610282565b6101166101b1366004610982565b6102c5565b6101be61039b565b6101c860006103c8565b565b6101d48484610418565b604051639fd5a6cf60e01b81526001600160a01b037f00000000000000000000000000000000000000000000000000000000000000001690639fd5a6cf9061022890879030908890889088906004016109eb565b600060405180830381600087803b15801561024257600080fd5b505af1158015610256573d6000803e3d6000fd5b50505050610264848461050a565b50505050565b6102748282610418565b61027e828261050a565b5050565b61028a61039b565b6001600160a01b0381166102b957604051631e4fbdf760e01b8152600060048201526024015b60405180910390fd5b6102c2816103c8565b50565b6102cd61039b565b806000819003610362576040516370a0823160e01b81523060048201527f00000000000000000000000000000000000000000000000000000000000000006001600160a01b0316906370a0823190602401602060405180830381865afa15801561033b573d6000803e3d6000fd5b505050506040513d601f19601f8201168201806040525081019061035f9190610a46565b90505b6103966001600160a01b037f0000000000000000000000000000000000000000000000000000000000000000168483610645565b505050565b6000546001600160a01b031633146101c85760405163118cdaa760e01b81523360048201526024016102b0565b600080546001600160a01b038381166001600160a01b0319831681178455604051919092169283917f8be0079c531659141344cd1fd0a4f28419497f9722a3daafe3b4186f6b6457e09190a35050565b6001600160a01b03821661043f57604051634e46966960e11b815260040160405180910390fd5b620f42408110156104635760405163162908e360e11b815260040160405180910390fd5b60405163b9209e3360e01b81526001600160a01b0383811660048301527f0000000000000000000000000000000000000000000000000000000000000000169063b9209e3390602401602060405180830381865afa1580156104c9573d6000803e3d6000fd5b505050506040513d601f19601f820116820180604052508101906104ed9190610a5f565b61027e57604051634a02e04360e11b815260040160405180910390fd5b6000610519620f424083610a97565b6105239083610ac1565b905061055a6001600160a01b037f0000000000000000000000000000000000000000000000000000000000000000168430846106a4565b6000600a61056b620f424084610ad4565b6105759190610ae8565b6040516340c10f1960e01b81526001600160a01b038681166004830152602482018390529192507f0000000000000000000000000000000000000000000000000000000000000000909116906340c10f1990604401600060405180830381600087803b1580156105e457600080fd5b505af11580156105f8573d6000803e3d6000fd5b50505050836001600160a01b03167fbb79ba075f5c7b305765de26f0d67b41b5bf22f1c5d3405bf0f5c8280a94cb8f8260405161063791815260200190565b60405180910390a250505050565b6040516001600160a01b0383811660248301526044820183905261039691859182169063a9059cbb906064015b604051602081830303815290604052915060e01b6020820180516001600160e01b0383818316178352505050506106dd565b6040516001600160a01b0384811660248301528381166044830152606482018390526102649186918216906323b872dd90608401610672565b60006106f26001600160a01b03841683610740565b905080516000141580156107175750808060200190518101906107159190610a5f565b155b1561039657604051635274afe760e01b81526001600160a01b03841660048201526024016102b0565b606061074e83836000610757565b90505b92915050565b60608147101561077c5760405163cd78605960e01b81523060048201526024016102b0565b600080856001600160a01b031684866040516107989190610aff565b60006040518083038185875af1925050503d80600081146107d5576040519150601f19603f3d011682016040523d82523d6000602084013e6107da565b606091505b50915091506107ea8683836107f6565b925050505b9392505050565b60608261080b5761080682610852565b6107ef565b815115801561082257506001600160a01b0384163b155b1561084b57604051639996b31560e01b81526001600160a01b03851660048201526024016102b0565b50806107ef565b8051156108625780518082602001fd5b604051630a12f52160e11b815260040160405180910390fd5b80356001600160a01b038116811461089257600080fd5b919050565b634e487b7160e01b600052604160045260246000fd5b600080600080608085870312156108c357600080fd5b6108cc8561087b565b93506020850135925060408501359150606085013567ffffffffffffffff808211156108f757600080fd5b818701915087601f83011261090b57600080fd5b81358181111561091d5761091d610897565b604051601f8201601f19908116603f0116810190838211818310171561094557610945610897565b816040528281528a602084870101111561095e57600080fd5b82602086016020830137600060208483010152809550505050505092959194509250565b6000806040838503121561099557600080fd5b61099e8361087b565b946020939093013593505050565b6000602082840312156109be57600080fd5b61074e8261087b565b60005b838110156109e25781810151838201526020016109ca565b50506000910152565b600060018060a01b03808816835280871660208401525084604083015283606083015260a0608083015282518060a0840152610a2e8160c08501602087016109c7565b601f01601f19169190910160c0019695505050505050565b600060208284031215610a5857600080fd5b5051919050565b600060208284031215610a7157600080fd5b815180151581146107ef57600080fd5b634e487b7160e01b600052601260045260246000fd5b600082610aa657610aa6610a81565b500690565b634e487b7160e01b600052601160045260246000fd5b8181038181111561075157610751610aab565b600082610ae357610ae3610a81565b500490565b808202811582820484141761075157610751610aab565b60008251610b118184602087016109c7565b919091019291505056fea2646970667358221220f6ef757f3b75b82a383febc4207e1dce55bdb7cadfeb7cc17831a93743e8f27564736f6c63430008180033",
  "devdoc": {
    "errors": {
      "AddressEmptyCode(address)": [
        {
          "details": "There's no code at `target` (it is not a contract)."
        }
      ],
      "AddressInsufficientBalance(address)": [
        {
          "details": "The ETH balance of the account is not enough to perform the operation."
        }
      ],
      "FailedInnerCall()": [
        {
          "details": "A call to an address target failed. The target may have reverted."
        }
      ],
      "OwnableInvalidOwner(address)": [
        {
          "details": "The owner is not a valid owner account. (eg. `address(0)`)"
        }
      ],
      "OwnableUnauthorizedAccount(address)": [
        {
          "details": "The caller account is not authorized to perform an operation."
        }
      ],
      "SafeERC20FailedOperation(address)": [
        {
          "details": "An operation with an ERC20 token failed."
        }
      ]
    },
    "kind": "dev",
    "methods": {
      "constructor": {
        "params": {
          "_attester": "The attester contract",
          "_bidToken": "The bid token contract",
          "_usdc": "The USDC address",
          "owner": "The owner of the contract"
        }
      },
      "owner()": {
        "details": "Returns the address of the current owner."
      },
      "renounceOwnership()": {
        "details": "Leaves the contract without owner. It will not be possible to call `onlyOwner` functions. Can only be called by the current owner. NOTE: Renouncing ownership will leave the contract without an owner, thereby disabling any functionality that is only available to the owner."
      },
      "transferOwnership(address)": {
        "details": "Transfers ownership of the contract to a new account (`newOwner`). Can only be called by the current owner."
      }
    },
    "version": 1
  },
  "userdoc": {
    "kind": "user",
    "methods": {},
    "version": 1
  },
  "storageLayout": {
    "storage": [
      {
        "astId": 883,
        "contract": "contracts/MicroBidTreasury.sol:MicroBidTreasury",
        "label": "_owner",
        "offset": 0,
        "slot": "0",
        "type": "t_address"
      }
    ],
    "types": {
      "t_address": {
        "encoding": "inplace",
        "label": "address",
        "numberOfBytes": "20"
      }
    }
  }
}