{
  "address": "0xd935e230819AE963626B31f292623106A3dc3B19",
  "abi": [
    {
      "inputs": [
        {
          "internalType": "address",
          "name": "owner",
          "type": "address"
        },
        {
          "internalType": "address",
          "name": "_usdc",
          "type": "address"
        },
        {
          "internalType": "contract IBidToken",
          "name": "_bidToken",
          "type": "address"
        },
        {
          "internalType": "contract IAttester",
          "name": "_attester",
          "type": "address"
        }
      ],
      "stateMutability": "nonpayable",
      "type": "constructor"
    },
    {
      "inputs": [
        {
          "internalType": "address",
          "name": "target",
          "type": "address"
        }
      ],
      "name": "AddressEmptyCode",
      "type": "error"
    },
    {
      "inputs": [
        {
          "internalType": "address",
          "name": "account",
          "type": "address"
        }
      ],
      "name": "AddressInsufficientBalance",
      "type": "error"
    },
    {
      "inputs": [],
      "name": "FailedInnerCall",
      "type": "error"
    },
    {
      "inputs": [],
      "name": "InvalidAmount",
      "type": "error"
    },
    {
      "inputs": [],
      "name": "InvalidRecipient",
      "type": "error"
    },
    {
      "inputs": [
        {
          "internalType": "address",
          "name": "owner",
          "type": "address"
        }
      ],
      "name": "OwnableInvalidOwner",
      "type": "error"
    },
    {
      "inputs": [
        {
          "internalType": "address",
          "name": "account",
          "type": "address"
        }
      ],
      "name": "OwnableUnauthorizedAccount",
      "type": "error"
    },
    {
      "inputs": [
        {
          "internalType": "address",
          "name": "token",
          "type": "address"
        }
      ],
      "name": "SafeERC20FailedOperation",
      "type": "error"
    },
    {
      "inputs": [],
      "name": "UnauthorizedRecipient",
      "type": "error"
    },
    {
      "anonymous": false,
      "inputs": [
        {
          "indexed": true,
          "internalType": "address",
          "name": "recipient",
          "type": "address"
        },
        {
          "indexed": false,
          "internalType": "uint256",
          "name": "amount",
          "type": "uint256"
        }
      ],
      "name": "BidTokensMinted",
      "type": "event"
    },
    {
      "anonymous": false,
      "inputs": [
        {
          "indexed": true,
          "internalType": "address",
          "name": "previousOwner",
          "type": "address"
        },
        {
          "indexed": true,
          "internalType": "address",
          "name": "newOwner",
          "type": "address"
        }
      ],
      "name": "OwnershipTransferred",
      "type": "event"
    },
    {
      "inputs": [],
      "name": "USDC_PER_BID_TOKEN",
      "outputs": [
        {
          "internalType": "uint256",
          "name": "",
          "type": "uint256"
        }
      ],
      "stateMutability": "view",
      "type": "function"
    },
    {
      "inputs": [],
      "name": "attester",
      "outputs": [
        {
          "internalType": "contract IAttester",
          "name": "",
          "type": "address"
        }
      ],
      "stateMutability": "view",
      "type": "function"
    },
    {
      "inputs": [],
      "name": "bidToken",
      "outputs": [
        {
          "internalType": "contract IBidToken",
          "name": "",
          "type": "address"
        }
      ],
      "stateMutability": "view",
      "type": "function"
    },
    {
      "inputs": [
        {
          "internalType": "address",
          "name": "to",
          "type": "address"
        },
        {
          "internalType": "uint256",
          "name": "amount",
          "type": "uint256"
        }
      ],
      "name": "mintBidTokens",
      "outputs": [],
      "stateMutability": "nonpayable",
      "type": "function"
    },
    {
      "inputs": [
        {
          "internalType": "address",
          "name": "to",
          "type": "address"
        },
        {
          "internalType": "uint256",
          "name": "amount",
          "type": "uint256"
        },
        {
          "internalType": "uint256",
          "name": "deadline",
          "type": "uint256"
        },
        {
          "internalType": "bytes",
          "name": "signature",
          "type": "bytes"
        }
      ],
      "name": "mintBidTokensWithSig",
      "outputs": [],
      "stateMutability": "nonpayable",
      "type": "function"
    },
    {
      "inputs": [],
      "name": "owner",
      "outputs": [
        {
          "internalType": "address",
          "name": "",
          "type": "address"
        }
      ],
      "stateMutability": "view",
      "type": "function"
    },
    {
      "inputs": [],
      "name": "renounceOwnership",
      "outputs": [],
      "stateMutability": "nonpayable",
      "type": "function"
    },
    {
      "inputs": [
        {
          "internalType": "address",
          "name": "newOwner",
          "type": "address"
        }
      ],
      "name": "transferOwnership",
      "outputs": [],
      "stateMutability": "nonpayable",
      "type": "function"
    },
    {
      "inputs": [],
      "name": "usdc",
      "outputs": [
        {
          "internalType": "address",
          "name": "",
          "type": "address"
        }
      ],
      "stateMutability": "view",
      "type": "function"
    },
    {
      "inputs": [
        {
          "internalType": "address",
          "name": "recipient",
          "type": "address"
        },
        {
          "internalType": "uint256",
          "name": "amount",
          "type": "uint256"
        }
      ],
      "name": "withdraw",
      "outputs": [],
      "stateMutability": "nonpayable",
      "type": "function"
    }
  ],
  "transactionHash": "0xc56ef48dd7cf2876fc3537abb7fd644d0618bc17773de684f4526331c11f46a9",
  "args": [
    "0xA82C8f5A03AeB2221abEdB51d9E462aFd9f63CD4",
    "0x036cbd53842c5426634e7929541ec2318f3dcf7e",
    "0xFcbb33894844f122686Bd015B1c60A25af1adDA5",
    "0x57bCA94DD71A03Fb2A10Bb6aC64e151AA102ff62"
  ],
  "numDeployments": 1,
  "solcInputHash": "669247ac9aa6cb05f3e780c27bdfd281",
  "bytecode": "0x60e060405234801561001057600080fd5b50604051610c48380380610c4883398101604081905261002f916100ee565b836001600160a01b03811661005e57604051631e4fbdf760e01b81526000600482015260240160405180910390fd5b61006781610086565b506001600160a01b0392831660805290821660a0521660c0525061014d565b600080546001600160a01b038381166001600160a01b0319831681178455604051919092169283917f8be0079c531659141344cd1fd0a4f28419497f9722a3daafe3b4186f6b6457e09190a35050565b6001600160a01b03811681146100eb57600080fd5b50565b6000806000806080858703121561010457600080fd5b845161010f816100d6565b6020860151909450610120816100d6565b6040860151909350610131816100d6565b6060860151909250610142816100d6565b939692955090935050565b60805160a05160c051610aab61019d6000396000818160ec01526103e601526000818161016c015261050c01526000818160a8015281816101e9015281816102d801526104a00152610aab6000f3fe608060405234801561001057600080fd5b506004361061009e5760003560e01c80638da5cb5b116100665780638da5cb5b146101435780639be2ccef14610154578063dfafd4fd14610167578063f2fde38b1461018e578063f3fef3a3146101a157600080fd5b80633e413bee146100a357806347b0c3b3146100e757806360b57cf71461010e578063715018a6146101265780638beb42e614610130575b600080fd5b6100ca7f000000000000000000000000000000000000000000000000000000000000000081565b6040516001600160a01b0390911681526020015b60405180910390f35b6100ca7f000000000000000000000000000000000000000000000000000000000000000081565b610118620f424081565b6040519081526020016100de565b61012e6101b4565b005b61012e61013e366004610820565b6101c8565b6000546001600160a01b03166100ca565b61012e6101623660046108f5565b610268565b6100ca7f000000000000000000000000000000000000000000000000000000000000000081565b61012e61019c36600461091f565b610280565b61012e6101af3660046108f5565b6102c3565b6101bc6102ff565b6101c6600061032c565b565b6101d2848461037c565b604051639fd5a6cf60e01b81526001600160a01b037f00000000000000000000000000000000000000000000000000000000000000001690639fd5a6cf90610226908790309088908890889060040161095e565b600060405180830381600087803b15801561024057600080fd5b505af1158015610254573d6000803e3d6000fd5b50505050610262848461046e565b50505050565b610272828261037c565b61027c828261046e565b5050565b6102886102ff565b6001600160a01b0381166102b757604051631e4fbdf760e01b8152600060048201526024015b60405180910390fd5b6102c08161032c565b50565b6102cb6102ff565b61027c6001600160a01b037f00000000000000000000000000000000000000000000000000000000000000001683836105b3565b6000546001600160a01b031633146101c65760405163118cdaa760e01b81523360048201526024016102ae565b600080546001600160a01b038381166001600160a01b0319831681178455604051919092169283917f8be0079c531659141344cd1fd0a4f28419497f9722a3daafe3b4186f6b6457e09190a35050565b6001600160a01b0382166103a357604051634e46966960e11b815260040160405180910390fd5b620f42408110156103c75760405163162908e360e11b815260040160405180910390fd5b60405163b9209e3360e01b81526001600160a01b0383811660048301527f0000000000000000000000000000000000000000000000000000000000000000169063b9209e3390602401602060405180830381865afa15801561042d573d6000803e3d6000fd5b505050506040513d601f19601f8201168201806040525081019061045191906109b9565b61027c57604051634a02e04360e11b815260040160405180910390fd5b610478828261037c565b6000610487620f4240836109f1565b6104919083610a1b565b90506104c86001600160a01b037f000000000000000000000000000000000000000000000000000000000000000016843084610617565b6000600a6104d9620f424084610a2e565b6104e39190610a42565b6040516340c10f1960e01b81526001600160a01b038681166004830152602482018390529192507f0000000000000000000000000000000000000000000000000000000000000000909116906340c10f1990604401600060405180830381600087803b15801561055257600080fd5b505af1158015610566573d6000803e3d6000fd5b50505050836001600160a01b03167fbb79ba075f5c7b305765de26f0d67b41b5bf22f1c5d3405bf0f5c8280a94cb8f826040516105a591815260200190565b60405180910390a250505050565b6040516001600160a01b0383811660248301526044820183905261061291859182169063a9059cbb906064015b604051602081830303815290604052915060e01b6020820180516001600160e01b038381831617835250505050610650565b505050565b6040516001600160a01b0384811660248301528381166044830152606482018390526102629186918216906323b872dd906084016105e0565b60006106656001600160a01b038416836106b3565b9050805160001415801561068a57508080602001905181019061068891906109b9565b155b1561061257604051635274afe760e01b81526001600160a01b03841660048201526024016102ae565b60606106c1838360006106ca565b90505b92915050565b6060814710156106ef5760405163cd78605960e01b81523060048201526024016102ae565b600080856001600160a01b0316848660405161070b9190610a59565b60006040518083038185875af1925050503d8060008114610748576040519150601f19603f3d011682016040523d82523d6000602084013e61074d565b606091505b509150915061075d868383610769565b925050505b9392505050565b60608261077e57610779826107c5565b610762565b815115801561079557506001600160a01b0384163b155b156107be57604051639996b31560e01b81526001600160a01b03851660048201526024016102ae565b5080610762565b8051156107d55780518082602001fd5b604051630a12f52160e11b815260040160405180910390fd5b80356001600160a01b038116811461080557600080fd5b919050565b634e487b7160e01b600052604160045260246000fd5b6000806000806080858703121561083657600080fd5b61083f856107ee565b93506020850135925060408501359150606085013567ffffffffffffffff8082111561086a57600080fd5b818701915087601f83011261087e57600080fd5b8135818111156108905761089061080a565b604051601f8201601f19908116603f011681019083821181831017156108b8576108b861080a565b816040528281528a60208487010111156108d157600080fd5b82602086016020830137600060208483010152809550505050505092959194509250565b6000806040838503121561090857600080fd5b610911836107ee565b946020939093013593505050565b60006020828403121561093157600080fd5b6106c1826107ee565b60005b8381101561095557818101518382015260200161093d565b50506000910152565b600060018060a01b03808816835280871660208401525084604083015283606083015260a0608083015282518060a08401526109a18160c085016020870161093a565b601f01601f19169190910160c0019695505050505050565b6000602082840312156109cb57600080fd5b8151801515811461076257600080fd5b634e487b7160e01b600052601260045260246000fd5b600082610a0057610a006109db565b500690565b634e487b7160e01b600052601160045260246000fd5b818103818111156106c4576106c4610a05565b600082610a3d57610a3d6109db565b500490565b80820281158282048414176106c4576106c4610a05565b60008251610a6b81846020870161093a565b919091019291505056fea26469706673582212205658a2a287e3126d31ae1737d95868f0bfa293bf22f4264e7f27d43fc1ec81b464736f6c63430008180033",
  "devdoc": {
    "errors": {
      "AddressEmptyCode(address)": [
        {
          "details": "There's no code at `target` (it is not a contract)."
        }
      ],
      "AddressInsufficientBalance(address)": [
        {
          "details": "The ETH balance of the account is not enough to perform the operation."
        }
      ],
      "FailedInnerCall()": [
        {
          "details": "A call to an address target failed. The target may have reverted."
        }
      ],
      "OwnableInvalidOwner(address)": [
        {
          "details": "The owner is not a valid owner account. (eg. `address(0)`)"
        }
      ],
      "OwnableUnauthorizedAccount(address)": [
        {
          "details": "The caller account is not authorized to perform an operation."
        }
      ],
      "SafeERC20FailedOperation(address)": [
        {
          "details": "An operation with an ERC20 token failed."
        }
      ]
    },
    "kind": "dev",
    "methods": {
      "constructor": {
        "params": {
          "_attester": "The attester contract",
          "_bidToken": "The bid token contract",
          "_usdc": "The USDC address",
          "owner": "The owner of the contract"
        }
      },
      "owner()": {
        "details": "Returns the address of the current owner."
      },
      "renounceOwnership()": {
        "details": "Leaves the contract without owner. It will not be possible to call `onlyOwner` functions. Can only be called by the current owner. NOTE: Renouncing ownership will leave the contract without an owner, thereby disabling any functionality that is only available to the owner."
      },
      "transferOwnership(address)": {
        "details": "Transfers ownership of the contract to a new account (`newOwner`). Can only be called by the current owner."
      }
    },
    "version": 1
  },
  "userdoc": {
    "kind": "user",
    "methods": {},
    "version": 1
  },
  "storageLayout": {
    "storage": [
      {
        "astId": 883,
        "contract": "contracts/MicroBidTreasury.sol:MicroBidTreasury",
        "label": "_owner",
        "offset": 0,
        "slot": "0",
        "type": "t_address"
      }
    ],
    "types": {
      "t_address": {
        "encoding": "inplace",
        "label": "address",
        "numberOfBytes": "20"
      }
    }
  }
}