{
  "address": "0x36f07fE9Bed364c2c8F679E058af7107dfb0CE33",
  "abi": [
    {
      "inputs": [
        {
          "internalType": "address",
          "name": "owner",
          "type": "address"
        },
        {
          "internalType": "contract MicroBidToken",
          "name": "_bidToken",
          "type": "address"
        },
        {
          "internalType": "address",
          "name": "_collateralToken",
          "type": "address"
        },
        {
          "internalType": "contract IAttester",
          "name": "_attester",
          "type": "address"
        },
        {
          "internalType": "address",
          "name": "_treasury",
          "type": "address"
        }
      ],
      "stateMutability": "nonpayable",
      "type": "constructor"
    },
    {
      "inputs": [
        {
          "internalType": "address",
          "name": "target",
          "type": "address"
        }
      ],
      "name": "AddressEmptyCode",
      "type": "error"
    },
    {
      "inputs": [
        {
          "internalType": "address",
          "name": "account",
          "type": "address"
        }
      ],
      "name": "AddressInsufficientBalance",
      "type": "error"
    },
    {
      "inputs": [],
      "name": "AlreadyWinning",
      "type": "error"
    },
    {
      "inputs": [],
      "name": "AuctionAlreadyClaimed",
      "type": "error"
    },
    {
      "inputs": [],
      "name": "AuctionAlreadyStarted",
      "type": "error"
    },
    {
      "inputs": [],
      "name": "AuctionEnded",
      "type": "error"
    },
    {
      "inputs": [],
      "name": "AuctionNotEnded",
      "type": "error"
    },
    {
      "inputs": [],
      "name": "AuctionNotStarted",
      "type": "error"
    },
    {
      "inputs": [],
      "name": "FailedInnerCall",
      "type": "error"
    },
    {
      "inputs": [],
      "name": "InsufficientFunds",
      "type": "error"
    },
    {
      "inputs": [
        {
          "internalType": "address",
          "name": "owner",
          "type": "address"
        }
      ],
      "name": "OwnableInvalidOwner",
      "type": "error"
    },
    {
      "inputs": [
        {
          "internalType": "address",
          "name": "account",
          "type": "address"
        }
      ],
      "name": "OwnableUnauthorizedAccount",
      "type": "error"
    },
    {
      "inputs": [],
      "name": "ReentrancyGuardReentrantCall",
      "type": "error"
    },
    {
      "inputs": [
        {
          "internalType": "address",
          "name": "token",
          "type": "address"
        }
      ],
      "name": "SafeERC20FailedOperation",
      "type": "error"
    },
    {
      "inputs": [],
      "name": "UnauthorizedCaller",
      "type": "error"
    },
    {
      "inputs": [],
      "name": "UnauthorizedClaimer",
      "type": "error"
    },
    {
      "anonymous": false,
      "inputs": [
        {
          "indexed": true,
          "internalType": "uint256",
          "name": "id",
          "type": "uint256"
        },
        {
          "indexed": false,
          "internalType": "string",
          "name": "metadataURI",
          "type": "string"
        }
      ],
      "name": "AuctionAdded",
      "type": "event"
    },
    {
      "anonymous": false,
      "inputs": [
        {
          "indexed": true,
          "internalType": "uint256",
          "name": "id",
          "type": "uint256"
        },
        {
          "indexed": true,
          "internalType": "address",
          "name": "claimer",
          "type": "address"
        }
      ],
      "name": "AuctionClaimed",
      "type": "event"
    },
    {
      "anonymous": false,
      "inputs": [
        {
          "indexed": true,
          "internalType": "uint256",
          "name": "id",
          "type": "uint256"
        },
        {
          "indexed": false,
          "internalType": "string",
          "name": "metadataURI",
          "type": "string"
        }
      ],
      "name": "AuctionItemMetadataUpdated",
      "type": "event"
    },
    {
      "anonymous": false,
      "inputs": [
        {
          "indexed": true,
          "internalType": "uint256",
          "name": "id",
          "type": "uint256"
        },
        {
          "indexed": false,
          "internalType": "uint256",
          "name": "endBlock",
          "type": "uint256"
        }
      ],
      "name": "AuctionStarted",
      "type": "event"
    },
    {
      "anonymous": false,
      "inputs": [
        {
          "indexed": true,
          "internalType": "uint256",
          "name": "id",
          "type": "uint256"
        },
        {
          "indexed": true,
          "internalType": "address",
          "name": "bidder",
          "type": "address"
        },
        {
          "indexed": false,
          "internalType": "uint256",
          "name": "totalBids",
          "type": "uint256"
        },
        {
          "indexed": false,
          "internalType": "uint256",
          "name": "endBlock",
          "type": "uint256"
        }
      ],
      "name": "BidPlaced",
      "type": "event"
    },
    {
      "anonymous": false,
      "inputs": [
        {
          "indexed": true,
          "internalType": "address",
          "name": "previousOwner",
          "type": "address"
        },
        {
          "indexed": true,
          "internalType": "address",
          "name": "newOwner",
          "type": "address"
        }
      ],
      "name": "OwnershipTransferred",
      "type": "event"
    },
    {
      "inputs": [
        {
          "internalType": "string",
          "name": "metadataURI",
          "type": "string"
        }
      ],
      "name": "addItem",
      "outputs": [],
      "stateMutability": "nonpayable",
      "type": "function"
    },
    {
      "inputs": [],
      "name": "attester",
      "outputs": [
        {
          "internalType": "contract IAttester",
          "name": "",
          "type": "address"
        }
      ],
      "stateMutability": "view",
      "type": "function"
    },
    {
      "inputs": [
        {
          "internalType": "uint256",
          "name": "itemId",
          "type": "uint256"
        }
      ],
      "name": "auctionItems",
      "outputs": [
        {
          "internalType": "uint256",
          "name": "itemId",
          "type": "uint256"
        },
        {
          "internalType": "bool",
          "name": "isStarted",
          "type": "bool"
        },
        {
          "internalType": "uint256",
          "name": "endBlock",
          "type": "uint256"
        },
        {
          "internalType": "uint256",
          "name": "totalBids",
          "type": "uint256"
        },
        {
          "internalType": "address",
          "name": "latestBidder",
          "type": "address"
        },
        {
          "internalType": "string",
          "name": "metadataURI",
          "type": "string"
        },
        {
          "internalType": "bool",
          "name": "claimed",
          "type": "bool"
        }
      ],
      "stateMutability": "view",
      "type": "function"
    },
    {
      "inputs": [],
      "name": "bidToken",
      "outputs": [
        {
          "internalType": "contract MicroBidToken",
          "name": "",
          "type": "address"
        }
      ],
      "stateMutability": "view",
      "type": "function"
    },
    {
      "inputs": [
        {
          "internalType": "uint256",
          "name": "itemId",
          "type": "uint256"
        },
        {
          "internalType": "address",
          "name": "bidder",
          "type": "address"
        }
      ],
      "name": "bids",
      "outputs": [
        {
          "internalType": "uint256",
          "name": "numBids",
          "type": "uint256"
        }
      ],
      "stateMutability": "view",
      "type": "function"
    },
    {
      "inputs": [
        {
          "internalType": "uint256",
          "name": "itemId",
          "type": "uint256"
        }
      ],
      "name": "claim",
      "outputs": [],
      "stateMutability": "nonpayable",
      "type": "function"
    },
    {
      "inputs": [
        {
          "internalType": "uint256",
          "name": "itemId",
          "type": "uint256"
        },
        {
          "internalType": "uint256",
          "name": "deadline",
          "type": "uint256"
        },
        {
          "internalType": "uint8",
          "name": "v",
          "type": "uint8"
        },
        {
          "internalType": "bytes32",
          "name": "r",
          "type": "bytes32"
        },
        {
          "internalType": "bytes32",
          "name": "s",
          "type": "bytes32"
        }
      ],
      "name": "claimWithSig",
      "outputs": [],
      "stateMutability": "nonpayable",
      "type": "function"
    },
    {
      "inputs": [],
      "name": "collateralToken",
      "outputs": [
        {
          "internalType": "address",
          "name": "",
          "type": "address"
        }
      ],
      "stateMutability": "view",
      "type": "function"
    },
    {
      "inputs": [
        {
          "internalType": "uint256",
          "name": "itemId",
          "type": "uint256"
        }
      ],
      "name": "getAuctionItem",
      "outputs": [
        {
          "components": [
            {
              "internalType": "uint256",
              "name": "itemId",
              "type": "uint256"
            },
            {
              "internalType": "bool",
              "name": "isStarted",
              "type": "bool"
            },
            {
              "internalType": "uint256",
              "name": "endBlock",
              "type": "uint256"
            },
            {
              "internalType": "uint256",
              "name": "totalBids",
              "type": "uint256"
            },
            {
              "internalType": "address",
              "name": "latestBidder",
              "type": "address"
            },
            {
              "internalType": "string",
              "name": "metadataURI",
              "type": "string"
            },
            {
              "internalType": "bool",
              "name": "claimed",
              "type": "bool"
            }
          ],
          "internalType": "struct Types.AuctionItem",
          "name": "",
          "type": "tuple"
        }
      ],
      "stateMutability": "view",
      "type": "function"
    },
    {
      "inputs": [
        {
          "internalType": "uint256",
          "name": "itemId",
          "type": "uint256"
        },
        {
          "internalType": "address",
          "name": "bidder",
          "type": "address"
        }
      ],
      "name": "getBids",
      "outputs": [
        {
          "internalType": "uint256",
          "name": "",
          "type": "uint256"
        }
      ],
      "stateMutability": "view",
      "type": "function"
    },
    {
      "inputs": [
        {
          "internalType": "uint256",
          "name": "itemId",
          "type": "uint256"
        }
      ],
      "name": "getCurrentPrice",
      "outputs": [
        {
          "internalType": "uint256",
          "name": "",
          "type": "uint256"
        }
      ],
      "stateMutability": "view",
      "type": "function"
    },
    {
      "inputs": [
        {
          "internalType": "uint256",
          "name": "itemId",
          "type": "uint256"
        }
      ],
      "name": "getEstimatedEndTime",
      "outputs": [
        {
          "internalType": "uint256",
          "name": "",
          "type": "uint256"
        }
      ],
      "stateMutability": "view",
      "type": "function"
    },
    {
      "inputs": [
        {
          "internalType": "uint256",
          "name": "itemId",
          "type": "uint256"
        }
      ],
      "name": "getTotalBids",
      "outputs": [
        {
          "internalType": "uint256",
          "name": "",
          "type": "uint256"
        }
      ],
      "stateMutability": "view",
      "type": "function"
    },
    {
      "inputs": [
        {
          "internalType": "address",
          "name": "user",
          "type": "address"
        }
      ],
      "name": "getUserBidAuctions",
      "outputs": [
        {
          "internalType": "uint256[]",
          "name": "",
          "type": "uint256[]"
        }
      ],
      "stateMutability": "view",
      "type": "function"
    },
    {
      "inputs": [
        {
          "internalType": "uint256",
          "name": "itemId",
          "type": "uint256"
        }
      ],
      "name": "isAuctionEnded",
      "outputs": [
        {
          "internalType": "bool",
          "name": "",
          "type": "bool"
        }
      ],
      "stateMutability": "view",
      "type": "function"
    },
    {
      "inputs": [],
      "name": "itemCount",
      "outputs": [
        {
          "internalType": "uint256",
          "name": "",
          "type": "uint256"
        }
      ],
      "stateMutability": "view",
      "type": "function"
    },
    {
      "inputs": [],
      "name": "owner",
      "outputs": [
        {
          "internalType": "address",
          "name": "",
          "type": "address"
        }
      ],
      "stateMutability": "view",
      "type": "function"
    },
    {
      "inputs": [
        {
          "internalType": "uint256",
          "name": "itemId",
          "type": "uint256"
        }
      ],
      "name": "placeBid",
      "outputs": [],
      "stateMutability": "nonpayable",
      "type": "function"
    },
    {
      "inputs": [
        {
          "internalType": "address",
          "name": "to",
          "type": "address"
        },
        {
          "internalType": "address",
          "name": "tokenAddress",
          "type": "address"
        },
        {
          "internalType": "uint256",
          "name": "tokenAmount",
          "type": "uint256"
        }
      ],
      "name": "recoverERC20",
      "outputs": [],
      "stateMutability": "nonpayable",
      "type": "function"
    },
    {
      "inputs": [],
      "name": "renounceOwnership",
      "outputs": [],
      "stateMutability": "nonpayable",
      "type": "function"
    },
    {
      "inputs": [
        {
          "internalType": "uint256",
          "name": "itemId",
          "type": "uint256"
        }
      ],
      "name": "startAuction",
      "outputs": [],
      "stateMutability": "nonpayable",
      "type": "function"
    },
    {
      "inputs": [
        {
          "internalType": "uint256",
          "name": "itemId",
          "type": "uint256"
        }
      ],
      "name": "totalBidsOnItems",
      "outputs": [
        {
          "internalType": "uint256",
          "name": "totalBids",
          "type": "uint256"
        }
      ],
      "stateMutability": "view",
      "type": "function"
    },
    {
      "inputs": [
        {
          "internalType": "address",
          "name": "newOwner",
          "type": "address"
        }
      ],
      "name": "transferOwnership",
      "outputs": [],
      "stateMutability": "nonpayable",
      "type": "function"
    },
    {
      "inputs": [],
      "name": "treasury",
      "outputs": [
        {
          "internalType": "address",
          "name": "",
          "type": "address"
        }
      ],
      "stateMutability": "view",
      "type": "function"
    },
    {
      "inputs": [
        {
          "internalType": "uint256",
          "name": "itemId",
          "type": "uint256"
        },
        {
          "internalType": "string",
          "name": "metadataURI",
          "type": "string"
        }
      ],
      "name": "updateAuctionMetadata",
      "outputs": [],
      "stateMutability": "nonpayable",
      "type": "function"
    },
    {
      "inputs": [
        {
          "internalType": "address",
          "name": "bidder",
          "type": "address"
        },
        {
          "internalType": "uint256",
          "name": "",
          "type": "uint256"
        }
      ],
      "name": "userBidAuctions",
      "outputs": [
        {
          "internalType": "uint256",
          "name": "auctionIds",
          "type": "uint256"
        }
      ],
      "stateMutability": "view",
      "type": "function"
    }
  ],
  "transactionHash": "0x1dfa77d9c3edf1adb630091b14dad674bcc1aa7841d95ae21f1399dfb74e4ed9",
  "args": [
    "0xA82C8f5A03AeB2221abEdB51d9E462aFd9f63CD4",
    "0x9DbED5B843F76Ec647e2D900aB27CEAb3F715281",
    "0x036cbd53842c5426634e7929541ec2318f3dcf7e",
    "0x4E7d4C7e61001fe1E9d645f55b9e76EC419f7d85",
    "0x8c7Df5Ffabf81D6c83B11e13EfC8C1Ce4E783783"
  ],
  "numDeployments": 3,
  "solcInputHash": "88d84a06c9803e27d4b1740e31ad2a0c",
  "bytecode": "0x6101006040523480156200001257600080fd5b5060405162001d3038038062001d30833981016040819052620000359162000102565b846001600160a01b0381166200006557604051631e4fbdf760e01b81526000600482015260240160405180910390fd5b620000708162000099565b50600180556001600160a01b0393841660805291831660a052821660c0521660e0525062000182565b600080546001600160a01b038381166001600160a01b0319831681178455604051919092169283917f8be0079c531659141344cd1fd0a4f28419497f9722a3daafe3b4186f6b6457e09190a35050565b6001600160a01b0381168114620000ff57600080fd5b50565b600080600080600060a086880312156200011b57600080fd5b85516200012881620000e9565b60208701519095506200013b81620000e9565b60408701519094506200014e81620000e9565b60608701519093506200016181620000e9565b60808701519092506200017481620000e9565b809150509295509295909350565b60805160a05160c05160e051611b2e6200020260003960008181610296015281816108490152610c1f0152600081816102570152610cfd01526000818161038f0152818161078f0152818161082601528181610abf01528181610b890152610bfa01526000818161040201528181610da50152610e820152611b2e6000f3fe608060405234801561001057600080fd5b506004361061018e5760003560e01c80638da5cb5b116100de578063c497338911610097578063dfafd4fd11610071578063dfafd4fd146103fd578063f279f9ad14610424578063f2fde38b14610444578063f60e59711461045757600080fd5b8063c4973389146103b1578063c55d0f56146103c4578063d2c069f0146103d757600080fd5b80638da5cb5b146102fc5780638e5bc6061461030d5780639979ef451461032d578063998f1b8714610340578063b172b41114610377578063b2016bd41461038a57600080fd5b80633f1ffcec1161014b57806368bae9341161012557806368bae934146102b85780636bfb0d01146102d8578063715018a6146102e15780638c7f9722146102e957600080fd5b80633f1ffcec1461022757806347b0c3b31461025257806361d027b31461029157600080fd5b8063065de74c146101935780631171bda9146101a857806314868319146101bb5780631dfb03f8146101e157806327e9f29414610201578063379607f514610214575b600080fd5b6101a66101a1366004611532565b61046a565b005b6101a66101b6366004611567565b610502565b6101ce6101c93660046115a3565b610583565b6040519081526020015b60405180910390f35b6101ce6101ef366004611532565b60036020526000908152604090205481565b6101a661020f366004611670565b6105b4565b6101a6610222366004611532565b6106d0565b6101ce6102353660046116a5565b600460209081526000928352604080842090915290825290205481565b6102797f000000000000000000000000000000000000000000000000000000000000000081565b6040516001600160a01b0390911681526020016101d8565b6102797f000000000000000000000000000000000000000000000000000000000000000081565b6102cb6102c6366004611532565b6108af565b6040516101d89190611721565b6101ce60065481565b6101a66109ec565b6101a66102f7366004611792565b610a00565b6000546001600160a01b0316610279565b6101ce61031b366004611532565b60009081526003602052604090205490565b6101a661033b366004611532565b610c89565b61036761034e366004611532565b6000908152600260208190526040909120015443101590565b60405190151581526020016101d8565b6101a66103853660046117e1565b611038565b6102797f000000000000000000000000000000000000000000000000000000000000000081565b6101ce6103bf366004611532565b61109a565b6101ce6103d2366004611532565b6110ee565b6103ea6103e5366004611532565b611115565b6040516101d89796959493929190611828565b6102797f000000000000000000000000000000000000000000000000000000000000000081565b610437610432366004611879565b6111ec565b6040516101d89190611894565b6101a6610452366004611879565b611258565b6101ce6104653660046116a5565b611298565b6104726112c2565b6000818152600260205260409020600181015460ff16156104a65760405163628e388360e01b815260040160405180910390fd5b6001818101805460ff191690911790556104c261012c436118ee565b6002820181905560405190815282907ff8910119ddbef5440c54532457dfe8250a10ed39e583292818f44724b9e1344c9060200160405180910390a25050565b61050a6112c2565b60405163a9059cbb60e01b81526001600160a01b0384811660048301526024820183905283169063a9059cbb906044016020604051808303816000875af1158015610559573d6000803e3d6000fd5b505050506040513d601f19601f8201168201806040525081019061057d9190611901565b50505050565b6005602052816000526040600020818154811061059f57600080fd5b90600052602060002001600091509150505481565b6105bc6112c2565b600680549060006105cc83611923565b90915550506040805160e08101825260065480825260006020808401828152848601838152606086018481526080870185815260a088018a815260c089018790529686526002948590529790942086518155915160018301805460ff191691151591909117905551918101919091559051600382015592516004840180546001600160a01b0319166001600160a01b0390921691909117905551909190600582019061067890826119c6565b5060c091909101516006918201805460ff1916911515919091179055546040517fd7679c733896f0b87259676d45d23836a3b4b3989dcd6acefe09f87e2e2ecda7906106c5908490611a86565b60405180910390a250565b60008181526002602081905260409091209081015443101561070557604051636463738960e01b815260040160405180910390fd5b600681015460ff161561072b576040516322d0056560e11b815260040160405180910390fd5b60048101546001600160a01b0316331461075857604051631712a9f760e21b815260040160405180910390fd5b600381015460009061076d9061271090611a99565b6040516370a0823160e01b815233600482015290915081906001600160a01b037f000000000000000000000000000000000000000000000000000000000000000016906370a0823190602401602060405180830381865afa1580156107d6573d6000803e3d6000fd5b505050506040513d601f19601f820116820180604052508101906107fa9190611ab0565b10156108195760405163356680b760e01b815260040160405180910390fd5b61086e6001600160a01b037f000000000000000000000000000000000000000000000000000000000000000016337f0000000000000000000000000000000000000000000000000000000000000000846112ef565b60068201805460ff19166001179055604051339084907f815f33bf2e92b2ce2de5ce4fe8f253205512bc0372842c4799834249d561549490600090a3505050565b6040805160e08101825260008082526020820181905291810182905260608082018390526080820183905260a082015260c0810191909152600082815260026020818152604092839020835160e08101855281548152600182015460ff1615159281019290925291820154928101929092526003810154606083015260048101546001600160a01b0316608083015260058101805460a0840191906109539061193c565b80601f016020809104026020016040519081016040528092919081815260200182805461097f9061193c565b80156109cc5780601f106109a1576101008083540402835291602001916109cc565b820191906000526020600020905b8154815290600101906020018083116109af57829003601f168201915b50505091835250506006919091015460ff16151560209091015292915050565b6109f46112c2565b6109fe6000611349565b565b600085815260026020819052604090912090810154431015610a3557604051636463738960e01b815260040160405180910390fd5b600681015460ff1615610a5b576040516322d0056560e11b815260040160405180910390fd5b60048101546001600160a01b03163314610a8857604051631712a9f760e21b815260040160405180910390fd5b6003810154600090610a9d9061271090611a99565b6040516370a0823160e01b815233600482015290915081906001600160a01b037f000000000000000000000000000000000000000000000000000000000000000016906370a0823190602401602060405180830381865afa158015610b06573d6000803e3d6000fd5b505050506040513d601f19601f82011682018060405250810190610b2a9190611ab0565b1015610b495760405163356680b760e01b815260040160405180910390fd5b60405163d505accf60e01b8152336004820152306024820152604481018290526064810187905260ff8616608482015260a4810185905260c481018490527f00000000000000000000000000000000000000000000000000000000000000006001600160a01b03169063d505accf9060e401600060405180830381600087803b158015610bd557600080fd5b505af1158015610be9573d6000803e3d6000fd5b50610c449250506001600160a01b037f0000000000000000000000000000000000000000000000000000000000000000169050337f0000000000000000000000000000000000000000000000000000000000000000846112ef565b60068201805460ff19166001179055604051339088907f815f33bf2e92b2ce2de5ce4fe8f253205512bc0372842c4799834249d561549490600090a350505050505050565b610c91611399565b6000818152600260205260409020600181015460ff16610cc4576040516301dff5d560e71b815260040160405180910390fd5b80600201544310610ce85760405163283a4a6160e21b815260040160405180910390fd5b60405163b9209e3360e01b81523360048201527f00000000000000000000000000000000000000000000000000000000000000006001600160a01b03169063b9209e3390602401602060405180830381865afa158015610d4c573d6000803e3d6000fd5b505050506040513d601f19601f82011682018060405250810190610d709190611901565b610d8d57604051635c427cd960e01b815260040160405180910390fd5b6040516370a0823160e01b81523360048201526001907f00000000000000000000000000000000000000000000000000000000000000006001600160a01b0316906370a0823190602401602060405180830381865afa158015610df4573d6000803e3d6000fd5b505050506040513d601f19601f82011682018060405250810190610e189190611ab0565b1015610e375760405163356680b760e01b815260040160405180910390fd5b6004810154336001600160a01b0390911603610e66576040516304ff8dc160e11b815260040160405180910390fd5b604051632770a7eb60e21b8152336004820152600160248201527f00000000000000000000000000000000000000000000000000000000000000006001600160a01b031690639dc29fac90604401600060405180830381600087803b158015610ece57600080fd5b505af1158015610ee2573d6000803e3d6000fd5b5050506003820154610ef6915060016118ee565b6003808301919091556004820180546001600160a01b03191633179055600083815260209190915260408120805460019290610f339084906118ee565b909155505060008281526004602090815260408083203384529091528120805460019290610f629084906118ee565b90915550506002810154610f77600a436118ee565b1115610f8e57610f88600a436118ee565b60028201555b6000828152600460209081526040808320338452909152902054600103610fd257336000908152600560209081526040822080546001810182559083529120018290555b600082815260036020526040908190205460028301549151339285927f51db8e23b3f4479b162fd48823b8402895442b8f6cfd94f66239391881ec7b6f926110239290918252602082015260400190565b60405180910390a35061103560018055565b50565b6110406112c2565b60008281526002602052604090206005810161105c83826119c6565b50827f63806e708361275d5f46a92f019ae52dbc009a7f62197ca633271274b4dc1f038360405161108d9190611a86565b60405180910390a2505050565b600081815260026020819052604082209081015443106110bd5750600092915050565b60004382600201546110cf9190611ac9565b90506110dc816002611a99565b6110e690426118ee565b949350505050565b6000818152600260205260408120600381015461110e9061271090611a99565b9392505050565b6002602081905260009182526040909120805460018201549282015460038301546004840154600585018054949660ff1695939492936001600160a01b03909216926111609061193c565b80601f016020809104026020016040519081016040528092919081815260200182805461118c9061193c565b80156111d95780601f106111ae576101008083540402835291602001916111d9565b820191906000526020600020905b8154815290600101906020018083116111bc57829003601f168201915b5050506006909301549192505060ff1687565b6001600160a01b03811660009081526005602090815260409182902080548351818402810184019094528084526060939283018282801561124c57602002820191906000526020600020905b815481526020019060010190808311611238575b50505050509050919050565b6112606112c2565b6001600160a01b03811661128f57604051631e4fbdf760e01b8152600060048201526024015b60405180910390fd5b61103581611349565b60008281526004602090815260408083206001600160a01b03851684529091529020545b92915050565b6000546001600160a01b031633146109fe5760405163118cdaa760e01b8152336004820152602401611286565b604080516001600160a01b0385811660248301528416604482015260648082018490528251808303909101815260849091019091526020810180516001600160e01b03166323b872dd60e01b17905261057d9085906113c3565b600080546001600160a01b038381166001600160a01b0319831681178455604051919092169283917f8be0079c531659141344cd1fd0a4f28419497f9722a3daafe3b4186f6b6457e09190a35050565b6002600154036113bc57604051633ee5aeb560e01b815260040160405180910390fd5b6002600155565b60006113d86001600160a01b0384168361142b565b905080516000141580156113fd5750808060200190518101906113fb9190611901565b155b1561142657604051635274afe760e01b81526001600160a01b0384166004820152602401611286565b505050565b606061110e8383600084600080856001600160a01b031684866040516114519190611adc565b60006040518083038185875af1925050503d806000811461148e576040519150601f19603f3d011682016040523d82523d6000602084013e611493565b606091505b50915091506114a38683836114ad565b9695505050505050565b6060826114c2576114bd82611509565b61110e565b81511580156114d957506001600160a01b0384163b155b1561150257604051639996b31560e01b81526001600160a01b0385166004820152602401611286565b508061110e565b8051156115195780518082602001fd5b604051630a12f52160e11b815260040160405180910390fd5b60006020828403121561154457600080fd5b5035919050565b80356001600160a01b038116811461156257600080fd5b919050565b60008060006060848603121561157c57600080fd5b6115858461154b565b92506115936020850161154b565b9150604084013590509250925092565b600080604083850312156115b657600080fd5b6115bf8361154b565b946020939093013593505050565b634e487b7160e01b600052604160045260246000fd5b600082601f8301126115f457600080fd5b813567ffffffffffffffff8082111561160f5761160f6115cd565b604051601f8301601f19908116603f01168101908282118183101715611637576116376115cd565b8160405283815286602085880101111561165057600080fd5b836020870160208301376000602085830101528094505050505092915050565b60006020828403121561168257600080fd5b813567ffffffffffffffff81111561169957600080fd5b6110e6848285016115e3565b600080604083850312156116b857600080fd5b823591506116c86020840161154b565b90509250929050565b60005b838110156116ec5781810151838201526020016116d4565b50506000910152565b6000815180845261170d8160208601602086016116d1565b601f01601f19169290920160200192915050565b6020815281516020820152602082015115156040820152604082015160608201526060820151608082015260018060a01b0360808301511660a0820152600060a083015160e060c084015261177a6101008401826116f5565b905060c0840151151560e08401528091505092915050565b600080600080600060a086880312156117aa57600080fd5b8535945060208601359350604086013560ff811681146117c957600080fd5b94979396509394606081013594506080013592915050565b600080604083850312156117f457600080fd5b82359150602083013567ffffffffffffffff81111561181257600080fd5b61181e858286016115e3565b9150509250929050565b878152861515602082015285604082015284606082015260018060a01b038416608082015260e060a0820152600061186360e08301856116f5565b905082151560c083015298975050505050505050565b60006020828403121561188b57600080fd5b61110e8261154b565b6020808252825182820181905260009190848201906040850190845b818110156118cc578351835292840192918401916001016118b0565b50909695505050505050565b634e487b7160e01b600052601160045260246000fd5b808201808211156112bc576112bc6118d8565b60006020828403121561191357600080fd5b8151801515811461110e57600080fd5b600060018201611935576119356118d8565b5060010190565b600181811c9082168061195057607f821691505b60208210810361197057634e487b7160e01b600052602260045260246000fd5b50919050565b601f821115611426576000816000526020600020601f850160051c8101602086101561199f5750805b601f850160051c820191505b818110156119be578281556001016119ab565b505050505050565b815167ffffffffffffffff8111156119e0576119e06115cd565b6119f4816119ee845461193c565b84611976565b602080601f831160018114611a295760008415611a115750858301515b600019600386901b1c1916600185901b1785556119be565b600085815260208120601f198616915b82811015611a5857888601518255948401946001909101908401611a39565b5085821015611a765787850151600019600388901b60f8161c191681555b5050505050600190811b01905550565b60208152600061110e60208301846116f5565b80820281158282048414176112bc576112bc6118d8565b600060208284031215611ac257600080fd5b5051919050565b818103818111156112bc576112bc6118d8565b60008251611aee8184602087016116d1565b919091019291505056fea26469706673582212208036996acb4574eb0571b4388aea3de82e85fa2fedfe4c2c0c96b08ea355d58764736f6c63430008180033",
  "devdoc": {
    "errors": {
      "AddressEmptyCode(address)": [
        {
          "details": "There's no code at `target` (it is not a contract)."
        }
      ],
      "AddressInsufficientBalance(address)": [
        {
          "details": "The ETH balance of the account is not enough to perform the operation."
        }
      ],
      "FailedInnerCall()": [
        {
          "details": "A call to an address target failed. The target may have reverted."
        }
      ],
      "OwnableInvalidOwner(address)": [
        {
          "details": "The owner is not a valid owner account. (eg. `address(0)`)"
        }
      ],
      "OwnableUnauthorizedAccount(address)": [
        {
          "details": "The caller account is not authorized to perform an operation."
        }
      ],
      "ReentrancyGuardReentrantCall()": [
        {
          "details": "Unauthorized reentrant call."
        }
      ],
      "SafeERC20FailedOperation(address)": [
        {
          "details": "An operation with an ERC20 token failed."
        }
      ]
    },
    "kind": "dev",
    "methods": {
      "getAuctionItem(uint256)": {
        "params": {
          "itemId": "The ID of the auction item"
        },
        "returns": {
          "_0": "The auction item"
        }
      },
      "getBids(uint256,address)": {
        "params": {
          "bidder": "The address of the bidder",
          "itemId": "The ID of the auction item"
        },
        "returns": {
          "_0": "The number of bids"
        }
      },
      "getCurrentPrice(uint256)": {
        "params": {
          "itemId": "The ID of the auction item"
        },
        "returns": {
          "_0": "The current price"
        }
      },
      "getEstimatedEndTime(uint256)": {
        "params": {
          "itemId": "The ID of the auction item"
        },
        "returns": {
          "_0": "The estimated end time"
        }
      },
      "getTotalBids(uint256)": {
        "params": {
          "itemId": "The ID of the auction item"
        },
        "returns": {
          "_0": "The total number of bids"
        }
      },
      "getUserBidAuctions(address)": {
        "params": {
          "user": "The address of the user"
        },
        "returns": {
          "_0": "The list of auction IDs"
        }
      },
      "isAuctionEnded(uint256)": {
        "params": {
          "itemId": "The ID of the auction item"
        },
        "returns": {
          "_0": "True if the auction has ended"
        }
      },
      "owner()": {
        "details": "Returns the address of the current owner."
      },
      "placeBid(uint256)": {
        "params": {
          "itemId": "The ID of the auction item"
        }
      },
      "renounceOwnership()": {
        "details": "Leaves the contract without owner. It will not be possible to call `onlyOwner` functions. Can only be called by the current owner. NOTE: Renouncing ownership will leave the contract without an owner, thereby disabling any functionality that is only available to the owner."
      },
      "transferOwnership(address)": {
        "details": "Transfers ownership of the contract to a new account (`newOwner`). Can only be called by the current owner."
      }
    },
    "stateVariables": {
      "EXTENSION_DURATION_BLOCKS": {
        "details": "The duration of the auction extension, with each bid placed, in blocks"
      },
      "INITIAL_DURATION_BLOCKS": {
        "details": "The initial duration of the auction in blocks"
      },
      "PRICE_INCREASE_STEP": {
        "details": "The amount the price increases with each bid in USDC"
      }
    },
    "version": 1
  },
  "userdoc": {
    "kind": "user",
    "methods": {
      "getAuctionItem(uint256)": {
        "notice": "Get the auction item with the given ID"
      },
      "getBids(uint256,address)": {
        "notice": "Get the number of bids the given bidder has placed on the given item"
      },
      "getCurrentPrice(uint256)": {
        "notice": "Get the current USDC price of the given item"
      },
      "getEstimatedEndTime(uint256)": {
        "notice": "Get the estimated end time of the given item"
      },
      "getTotalBids(uint256)": {
        "notice": "Get the total number of bids on the given item"
      },
      "getUserBidAuctions(address)": {
        "notice": "Get the list of auction IDs the given user has bid on"
      },
      "isAuctionEnded(uint256)": {
        "notice": "Check if the auction has ended"
      },
      "placeBid(uint256)": {
        "notice": "Place a bid on the given item"
      }
    },
    "version": 1
  },
  "storageLayout": {
    "storage": [
      {
        "astId": 387,
        "contract": "contracts/MicroBidAuction.sol:MicroBidAuction",
        "label": "_owner",
        "offset": 0,
        "slot": "0",
        "type": "t_address"
      },
      {
        "astId": 2149,
        "contract": "contracts/MicroBidAuction.sol:MicroBidAuction",
        "label": "_status",
        "offset": 0,
        "slot": "1",
        "type": "t_uint256"
      },
      {
        "astId": 4738,
        "contract": "contracts/MicroBidAuction.sol:MicroBidAuction",
        "label": "auctionItems",
        "offset": 0,
        "slot": "2",
        "type": "t_mapping(t_uint256,t_struct(AuctionItem)5607_storage)"
      },
      {
        "astId": 4742,
        "contract": "contracts/MicroBidAuction.sol:MicroBidAuction",
        "label": "totalBidsOnItems",
        "offset": 0,
        "slot": "3",
        "type": "t_mapping(t_uint256,t_uint256)"
      },
      {
        "astId": 4748,
        "contract": "contracts/MicroBidAuction.sol:MicroBidAuction",
        "label": "bids",
        "offset": 0,
        "slot": "4",
        "type": "t_mapping(t_uint256,t_mapping(t_address,t_uint256))"
      },
      {
        "astId": 4753,
        "contract": "contracts/MicroBidAuction.sol:MicroBidAuction",
        "label": "userBidAuctions",
        "offset": 0,
        "slot": "5",
        "type": "t_mapping(t_address,t_array(t_uint256)dyn_storage)"
      },
      {
        "astId": 4755,
        "contract": "contracts/MicroBidAuction.sol:MicroBidAuction",
        "label": "itemCount",
        "offset": 0,
        "slot": "6",
        "type": "t_uint256"
      }
    ],
    "types": {
      "t_address": {
        "encoding": "inplace",
        "label": "address",
        "numberOfBytes": "20"
      },
      "t_array(t_uint256)dyn_storage": {
        "base": "t_uint256",
        "encoding": "dynamic_array",
        "label": "uint256[]",
        "numberOfBytes": "32"
      },
      "t_bool": {
        "encoding": "inplace",
        "label": "bool",
        "numberOfBytes": "1"
      },
      "t_mapping(t_address,t_array(t_uint256)dyn_storage)": {
        "encoding": "mapping",
        "key": "t_address",
        "label": "mapping(address => uint256[])",
        "numberOfBytes": "32",
        "value": "t_array(t_uint256)dyn_storage"
      },
      "t_mapping(t_address,t_uint256)": {
        "encoding": "mapping",
        "key": "t_address",
        "label": "mapping(address => uint256)",
        "numberOfBytes": "32",
        "value": "t_uint256"
      },
      "t_mapping(t_uint256,t_mapping(t_address,t_uint256))": {
        "encoding": "mapping",
        "key": "t_uint256",
        "label": "mapping(uint256 => mapping(address => uint256))",
        "numberOfBytes": "32",
        "value": "t_mapping(t_address,t_uint256)"
      },
      "t_mapping(t_uint256,t_struct(AuctionItem)5607_storage)": {
        "encoding": "mapping",
        "key": "t_uint256",
        "label": "mapping(uint256 => struct Types.AuctionItem)",
        "numberOfBytes": "32",
        "value": "t_struct(AuctionItem)5607_storage"
      },
      "t_mapping(t_uint256,t_uint256)": {
        "encoding": "mapping",
        "key": "t_uint256",
        "label": "mapping(uint256 => uint256)",
        "numberOfBytes": "32",
        "value": "t_uint256"
      },
      "t_string_storage": {
        "encoding": "bytes",
        "label": "string",
        "numberOfBytes": "32"
      },
      "t_struct(AuctionItem)5607_storage": {
        "encoding": "inplace",
        "label": "struct Types.AuctionItem",
        "members": [
          {
            "astId": 5594,
            "contract": "contracts/MicroBidAuction.sol:MicroBidAuction",
            "label": "itemId",
            "offset": 0,
            "slot": "0",
            "type": "t_uint256"
          },
          {
            "astId": 5596,
            "contract": "contracts/MicroBidAuction.sol:MicroBidAuction",
            "label": "isStarted",
            "offset": 0,
            "slot": "1",
            "type": "t_bool"
          },
          {
            "astId": 5598,
            "contract": "contracts/MicroBidAuction.sol:MicroBidAuction",
            "label": "endBlock",
            "offset": 0,
            "slot": "2",
            "type": "t_uint256"
          },
          {
            "astId": 5600,
            "contract": "contracts/MicroBidAuction.sol:MicroBidAuction",
            "label": "totalBids",
            "offset": 0,
            "slot": "3",
            "type": "t_uint256"
          },
          {
            "astId": 5602,
            "contract": "contracts/MicroBidAuction.sol:MicroBidAuction",
            "label": "latestBidder",
            "offset": 0,
            "slot": "4",
            "type": "t_address"
          },
          {
            "astId": 5604,
            "contract": "contracts/MicroBidAuction.sol:MicroBidAuction",
            "label": "metadataURI",
            "offset": 0,
            "slot": "5",
            "type": "t_string_storage"
          },
          {
            "astId": 5606,
            "contract": "contracts/MicroBidAuction.sol:MicroBidAuction",
            "label": "claimed",
            "offset": 0,
            "slot": "6",
            "type": "t_bool"
          }
        ],
        "numberOfBytes": "224"
      },
      "t_uint256": {
        "encoding": "inplace",
        "label": "uint256",
        "numberOfBytes": "32"
      }
    }
  }
}