{
  "address": "0x2D6293cbeD5F6403aE2E769C6971D880DFDC5000",
  "abi": [
    {
      "inputs": [
        {
          "internalType": "address",
          "name": "owner",
          "type": "address"
        },
        {
          "internalType": "contract IEAS",
          "name": "_eas",
          "type": "address"
        },
        {
          "internalType": "address",
          "name": "_verifier",
          "type": "address"
        },
        {
          "internalType": "bytes32",
          "name": "_schemaUid",
          "type": "bytes32"
        }
      ],
      "stateMutability": "nonpayable",
      "type": "constructor"
    },
    {
      "inputs": [
        {
          "internalType": "address",
          "name": "owner",
          "type": "address"
        }
      ],
      "name": "OwnableInvalidOwner",
      "type": "error"
    },
    {
      "inputs": [
        {
          "internalType": "address",
          "name": "account",
          "type": "address"
        }
      ],
      "name": "OwnableUnauthorizedAccount",
      "type": "error"
    },
    {
      "anonymous": false,
      "inputs": [
        {
          "indexed": false,
          "internalType": "bytes32",
          "name": "uid",
          "type": "bytes32"
        },
        {
          "indexed": false,
          "internalType": "bytes32",
          "name": "schema",
          "type": "bytes32"
        },
        {
          "indexed": false,
          "internalType": "bytes",
          "name": "data",
          "type": "bytes"
        },
        {
          "indexed": false,
          "internalType": "address",
          "name": "attester",
          "type": "address"
        }
      ],
      "name": "AttestationCreated",
      "type": "event"
    },
    {
      "anonymous": false,
      "inputs": [
        {
          "indexed": false,
          "internalType": "uint16",
          "name": "srcChainId",
          "type": "uint16"
        },
        {
          "indexed": false,
          "internalType": "bytes",
          "name": "srcAddress",
          "type": "bytes"
        },
        {
          "indexed": false,
          "internalType": "uint64",
          "name": "nonce",
          "type": "uint64"
        },
        {
          "indexed": false,
          "internalType": "bytes",
          "name": "payload",
          "type": "bytes"
        }
      ],
      "name": "MessageReceived",
      "type": "event"
    },
    {
      "anonymous": false,
      "inputs": [
        {
          "indexed": true,
          "internalType": "address",
          "name": "previousOwner",
          "type": "address"
        },
        {
          "indexed": true,
          "internalType": "address",
          "name": "newOwner",
          "type": "address"
        }
      ],
      "name": "OwnershipTransferred",
      "type": "event"
    },
    {
      "anonymous": false,
      "inputs": [
        {
          "indexed": true,
          "internalType": "address",
          "name": "verifier",
          "type": "address"
        }
      ],
      "name": "VerifierUpdated",
      "type": "event"
    },
    {
      "inputs": [],
      "name": "SCHEMA",
      "outputs": [
        {
          "internalType": "string",
          "name": "",
          "type": "string"
        }
      ],
      "stateMutability": "view",
      "type": "function"
    },
    {
      "inputs": [
        {
          "internalType": "address",
          "name": "recipient",
          "type": "address"
        },
        {
          "components": [
            {
              "internalType": "uint256",
              "name": "nullifierHash",
              "type": "uint256"
            }
          ],
          "internalType": "struct Types.PoPSchema",
          "name": "data",
          "type": "tuple"
        }
      ],
      "name": "createAttestation",
      "outputs": [
        {
          "internalType": "bytes32",
          "name": "",
          "type": "bytes32"
        }
      ],
      "stateMutability": "nonpayable",
      "type": "function"
    },
    {
      "inputs": [
        {
          "internalType": "address",
          "name": "_address",
          "type": "address"
        }
      ],
      "name": "getAttestation",
      "outputs": [
        {
          "components": [
            {
              "internalType": "bytes32",
              "name": "uid",
              "type": "bytes32"
            },
            {
              "internalType": "bytes32",
              "name": "schema",
              "type": "bytes32"
            },
            {
              "internalType": "uint64",
              "name": "time",
              "type": "uint64"
            },
            {
              "internalType": "uint64",
              "name": "expirationTime",
              "type": "uint64"
            },
            {
              "internalType": "uint64",
              "name": "revocationTime",
              "type": "uint64"
            },
            {
              "internalType": "bytes32",
              "name": "refUID",
              "type": "bytes32"
            },
            {
              "internalType": "address",
              "name": "recipient",
              "type": "address"
            },
            {
              "internalType": "address",
              "name": "attester",
              "type": "address"
            },
            {
              "internalType": "bool",
              "name": "revocable",
              "type": "bool"
            },
            {
              "internalType": "bytes",
              "name": "data",
              "type": "bytes"
            }
          ],
          "internalType": "struct Attestation",
          "name": "",
          "type": "tuple"
        }
      ],
      "stateMutability": "view",
      "type": "function"
    },
    {
      "inputs": [
        {
          "internalType": "address",
          "name": "_address",
          "type": "address"
        }
      ],
      "name": "isVerified",
      "outputs": [
        {
          "internalType": "bool",
          "name": "",
          "type": "bool"
        }
      ],
      "stateMutability": "view",
      "type": "function"
    },
    {
      "inputs": [],
      "name": "owner",
      "outputs": [
        {
          "internalType": "address",
          "name": "",
          "type": "address"
        }
      ],
      "stateMutability": "view",
      "type": "function"
    },
    {
      "inputs": [],
      "name": "renounceOwnership",
      "outputs": [],
      "stateMutability": "nonpayable",
      "type": "function"
    },
    {
      "inputs": [],
      "name": "schemaUid",
      "outputs": [
        {
          "internalType": "bytes32",
          "name": "",
          "type": "bytes32"
        }
      ],
      "stateMutability": "view",
      "type": "function"
    },
    {
      "inputs": [
        {
          "internalType": "address",
          "name": "_verifier",
          "type": "address"
        }
      ],
      "name": "setVerifier",
      "outputs": [],
      "stateMutability": "nonpayable",
      "type": "function"
    },
    {
      "inputs": [
        {
          "internalType": "address",
          "name": "newOwner",
          "type": "address"
        }
      ],
      "name": "transferOwnership",
      "outputs": [],
      "stateMutability": "nonpayable",
      "type": "function"
    }
  ],
  "transactionHash": "0x7ee91a698e085e9294124f91e716db32c6b7624adedc343abe51e57e25e6d050",
  "args": [
    "0xA82C8f5A03AeB2221abEdB51d9E462aFd9f63CD4",
    "0x4200000000000000000000000000000000000021",
    "0x9C2008274683d060F2e4BAdC7f590B3ddaE945Ef",
    "0xa18203fef1db32761379aec06eb2396e47e9da77c02ad944815de1fa85fd094d"
  ],
  "numDeployments": 4,
  "solcInputHash": "60e197f8850af8262f55ef912d73205e",
  "bytecode": "0x60c060405234801561001057600080fd5b50604051610d10380380610d1083398101604081905261002f91610100565b836001600160a01b03811661005e57604051631e4fbdf760e01b81526000600482015260240160405180910390fd5b61006781610098565b506001600160a01b0392831660a052600180546001600160a01b031916929093169190911790915560805250610153565b600080546001600160a01b038381166001600160a01b0319831681178455604051919092169283917f8be0079c531659141344cd1fd0a4f28419497f9722a3daafe3b4186f6b6457e09190a35050565b6001600160a01b03811681146100fd57600080fd5b50565b6000806000806080858703121561011657600080fd5b8451610121816100e8565b6020860151909450610132816100e8565b6040860151909350610143816100e8565b6060959095015193969295505050565b60805160a051610b7d610193600039600081816102a40152818161044901526105b901526000818160e00152818161023101526103670152610b7d6000f3fe608060405234801561001057600080fd5b50600436106100935760003560e01c80638da5cb5b116100665780638da5cb5b14610102578063b4a8b1b81461011d578063b9209e331461015e578063f2fde38b14610181578063f9b717971461019457600080fd5b806331752e3a146100985780635437988d146100be578063715018a6146100d35780637f726118146100db575b600080fd5b6100ab6100a6366004610703565b6101b4565b6040519081526020015b60405180910390f35b6100d16100cc36600461076d565b6103a1565b005b6100d16103f3565b6100ab7f000000000000000000000000000000000000000000000000000000000000000081565b6000546040516001600160a01b0390911681526020016100b5565b610151604051806040016040528060158152602001740ead2dce8646a6c40dcead8d8d2ccd2cae490c2e6d605b1b81525081565b6040516100b591906107da565b61017161016c36600461076d565b610407565b60405190151581526020016100b5565b6100d161018f36600461076d565b6104fc565b6101a76101a236600461076d565b61053a565b6040516100b591906107ed565b6001546000906001600160a01b0316331461020e5760405162461bcd60e51b81526020600482015260156024820152742ab730baba3437b934bd32b2103b32b934b334b2b960591b60448201526064015b60405180910390fd5b60408051835160208201526000910160408051601f1981840301815282820182527f00000000000000000000000000000000000000000000000000000000000000008352815160c0810183526001600160a01b03808916825260006020838101829052600184870152606084018290526080840185905260a08401829052860192909252925163f17325e760e01b8152919450917f0000000000000000000000000000000000000000000000000000000000000000169063f17325e7906102d99085906004016108bc565b6020604051808303816000875af11580156102f8573d6000803e3d6000fd5b505050506040513d601f19601f8201168201806040525081019061031c919061093f565b6001600160a01b03871660009081526002602052604090819020829055519091507f3ccd60ad7253c7d6299c6d98bdc749fb8e40e2439c60b4fc21ac4712893a8890906103909083907f00000000000000000000000000000000000000000000000000000000000000009087908b90610958565b60405180910390a195945050505050565b6103a9610631565b600180546001600160a01b0319166001600160a01b0383169081179091556040517fd24015cc99cc1700cafca3042840a1d8ac1e3964fd2e0e37ea29c654056ee32790600090a250565b6103fb610631565b610405600061065e565b565b6001600160a01b0381166000908152600260205260408120548082036104305750600092915050565b6040516328c44a9960e21b8152600481018290526000907f00000000000000000000000000000000000000000000000000000000000000006001600160a01b03169063a3112a6490602401600060405180830381865afa158015610498573d6000803e3d6000fd5b505050506040513d6000823e601f3d908101601f191682016040526104c09190810190610a50565b60e08101519091506001600160a01b0316301480156104f45750836001600160a01b03168160c001516001600160a01b0316145b949350505050565b610504610631565b6001600160a01b03811661052e57604051631e4fbdf760e01b815260006004820152602401610205565b6105378161065e565b50565b60408051610140810182526000808252602080830182905282840182905260608084018390526080840183905260a0840183905260c0840183905260e0840183905261010084018390526101208401526001600160a01b0385811683526002909152908390205492516328c44a9960e21b8152600481018490529192917f00000000000000000000000000000000000000000000000000000000000000009091169063a3112a6490602401600060405180830381865afa158015610602573d6000803e3d6000fd5b505050506040513d6000823e601f3d908101601f1916820160405261062a9190810190610a50565b9392505050565b6000546001600160a01b031633146104055760405163118cdaa760e01b8152336004820152602401610205565b600080546001600160a01b038381166001600160a01b0319831681178455604051919092169283917f8be0079c531659141344cd1fd0a4f28419497f9722a3daafe3b4186f6b6457e09190a35050565b6001600160a01b038116811461053757600080fd5b634e487b7160e01b600052604160045260246000fd5b604051610140810167ffffffffffffffff811182821017156106fd576106fd6106c3565b60405290565b600080828403604081121561071757600080fd5b8335610722816106ae565b92506020601f198201121561073657600080fd5b506040516020810181811067ffffffffffffffff8211171561075a5761075a6106c3565b6040526020939093013583525092909150565b60006020828403121561077f57600080fd5b813561062a816106ae565b60005b838110156107a557818101518382015260200161078d565b50506000910152565b600081518084526107c681602086016020860161078a565b601f01601f19169290920160200192915050565b60208152600061062a60208301846107ae565b6020815281516020820152602082015160408201526000604083015161081f606084018267ffffffffffffffff169052565b50606083015167ffffffffffffffff8116608084015250608083015167ffffffffffffffff811660a08401525060a083015160c083015260c083015161087060e08401826001600160a01b03169052565b5060e083015161010061088d818501836001600160a01b03169052565b84015190506101206108a28482018315159052565b8401516101408481015290506104f46101608401826107ae565b60208152815160208201526000602083015160408084015260018060a01b03815116606084015267ffffffffffffffff60208201511660808401526040810151151560a0840152606081015160c0840152608081015160c060e08501526109276101208501826107ae565b905060a0820151610100850152809250505092915050565b60006020828403121561095157600080fd5b5051919050565b84815283602082015260806040820152600061097760808301856107ae565b905060018060a01b038316606083015295945050505050565b805167ffffffffffffffff811681146109a857600080fd5b919050565b80516109a8816106ae565b805180151581146109a857600080fd5b600082601f8301126109d957600080fd5b815167ffffffffffffffff808211156109f4576109f46106c3565b604051601f8301601f19908116603f01168101908282118183101715610a1c57610a1c6106c3565b81604052838152866020858801011115610a3557600080fd5b610a4684602083016020890161078a565b9695505050505050565b600060208284031215610a6257600080fd5b815167ffffffffffffffff80821115610a7a57600080fd5b908301906101408286031215610a8f57600080fd5b610a976106d9565b8251815260208301516020820152610ab160408401610990565b6040820152610ac260608401610990565b6060820152610ad360808401610990565b608082015260a083015160a0820152610aee60c084016109ad565b60c0820152610aff60e084016109ad565b60e0820152610100610b128185016109b8565b908201526101208381015183811115610b2a57600080fd5b610b36888287016109c8565b91830191909152509594505050505056fea26469706673582212200d26576d56387bbaf3d4d392df1a83c6ec4b0d9c01597e312b333a93876139b164736f6c63430008180033",
  "devdoc": {
    "errors": {
      "OwnableInvalidOwner(address)": [
        {
          "details": "The owner is not a valid owner account. (eg. `address(0)`)"
        }
      ],
      "OwnableUnauthorizedAccount(address)": [
        {
          "details": "The caller account is not authorized to perform an operation."
        }
      ]
    },
    "events": {
      "VerifierUpdated(address)": {
        "details": "Emitted when the verifier for the contract is set or updated.",
        "params": {
          "verifier": "The address of the verifier."
        }
      }
    },
    "kind": "dev",
    "methods": {
      "constructor": {
        "params": {
          "_eas": "The Ethereum Attestation Service instance",
          "_verifier": "The PoP verifier address",
          "owner": "The owner of the contract"
        }
      },
      "owner()": {
        "details": "Returns the address of the current owner."
      },
      "renounceOwnership()": {
        "details": "Leaves the contract without owner. It will not be possible to call `onlyOwner` functions. Can only be called by the current owner. NOTE: Renouncing ownership will leave the contract without an owner, thereby disabling any functionality that is only available to the owner."
      },
      "transferOwnership(address)": {
        "details": "Transfers ownership of the contract to a new account (`newOwner`). Can only be called by the current owner."
      }
    },
    "version": 1
  },
  "userdoc": {
    "kind": "user",
    "methods": {},
    "version": 1
  },
  "storageLayout": {
    "storage": [
      {
        "astId": 883,
        "contract": "contracts/MicroBidAttester.sol:MicroBidAttester",
        "label": "_owner",
        "offset": 0,
        "slot": "0",
        "type": "t_address"
      },
      {
        "astId": 5187,
        "contract": "contracts/MicroBidAttester.sol:MicroBidAttester",
        "label": "verifier",
        "offset": 0,
        "slot": "1",
        "type": "t_address"
      },
      {
        "astId": 5191,
        "contract": "contracts/MicroBidAttester.sol:MicroBidAttester",
        "label": "attestations",
        "offset": 0,
        "slot": "2",
        "type": "t_mapping(t_address,t_bytes32)"
      }
    ],
    "types": {
      "t_address": {
        "encoding": "inplace",
        "label": "address",
        "numberOfBytes": "20"
      },
      "t_bytes32": {
        "encoding": "inplace",
        "label": "bytes32",
        "numberOfBytes": "32"
      },
      "t_mapping(t_address,t_bytes32)": {
        "encoding": "mapping",
        "key": "t_address",
        "label": "mapping(address => bytes32)",
        "numberOfBytes": "32",
        "value": "t_bytes32"
      }
    }
  }
}